{
  "contractName": "ERC721HarbergerLicense",
  "abi": [
    {
      "constant": true,
      "inputs": [
        {
          "name": "_tokenId",
          "type": "uint256"
        }
      ],
      "name": "getApproved",
      "outputs": [
        {
          "name": "",
          "type": "address"
        }
      ],
      "payable": false,
      "stateMutability": "view",
      "type": "function"
    },
    {
      "constant": false,
      "inputs": [
        {
          "name": "_to",
          "type": "address"
        },
        {
          "name": "_tokenId",
          "type": "uint256"
        }
      ],
      "name": "approve",
      "outputs": [],
      "payable": false,
      "stateMutability": "nonpayable",
      "type": "function"
    },
    {
      "constant": false,
      "inputs": [
        {
          "name": "_from",
          "type": "address"
        },
        {
          "name": "_to",
          "type": "address"
        },
        {
          "name": "_tokenId",
          "type": "uint256"
        }
      ],
      "name": "transferFrom",
      "outputs": [],
      "payable": false,
      "stateMutability": "nonpayable",
      "type": "function"
    },
    {
      "constant": false,
      "inputs": [
        {
          "name": "_from",
          "type": "address"
        },
        {
          "name": "_to",
          "type": "address"
        },
        {
          "name": "_tokenId",
          "type": "uint256"
        }
      ],
      "name": "safeTransferFrom",
      "outputs": [],
      "payable": false,
      "stateMutability": "nonpayable",
      "type": "function"
    },
    {
      "constant": true,
      "inputs": [
        {
          "name": "",
          "type": "uint256"
        }
      ],
      "name": "allTokensIndex",
      "outputs": [
        {
          "name": "",
          "type": "uint256"
        }
      ],
      "payable": false,
      "stateMutability": "view",
      "type": "function"
    },
    {
      "constant": true,
      "inputs": [
        {
          "name": "_tokenId",
          "type": "uint256"
        }
      ],
      "name": "exists",
      "outputs": [
        {
          "name": "",
          "type": "bool"
        }
      ],
      "payable": false,
      "stateMutability": "view",
      "type": "function"
    },
    {
      "constant": true,
      "inputs": [
        {
          "name": "",
          "type": "uint256"
        }
      ],
      "name": "allTokens",
      "outputs": [
        {
          "name": "",
          "type": "uint256"
        }
      ],
      "payable": false,
      "stateMutability": "view",
      "type": "function"
    },
    {
      "constant": true,
      "inputs": [
        {
          "name": "_tokenId",
          "type": "uint256"
        }
      ],
      "name": "ownerOf",
      "outputs": [
        {
          "name": "",
          "type": "address"
        }
      ],
      "payable": false,
      "stateMutability": "view",
      "type": "function"
    },
    {
      "constant": true,
      "inputs": [
        {
          "name": "",
          "type": "uint256"
        }
      ],
      "name": "tokenURIs",
      "outputs": [
        {
          "name": "",
          "type": "string"
        }
      ],
      "payable": false,
      "stateMutability": "view",
      "type": "function"
    },
    {
      "constant": true,
      "inputs": [
        {
          "name": "",
          "type": "uint256"
        }
      ],
      "name": "tokenTaxlog",
      "outputs": [
        {
          "name": "",
          "type": "uint256"
        }
      ],
      "payable": false,
      "stateMutability": "view",
      "type": "function"
    },
    {
      "constant": true,
      "inputs": [
        {
          "name": "_owner",
          "type": "address"
        }
      ],
      "name": "balanceOf",
      "outputs": [
        {
          "name": "",
          "type": "uint256"
        }
      ],
      "payable": false,
      "stateMutability": "view",
      "type": "function"
    },
    {
      "constant": true,
      "inputs": [
        {
          "name": "",
          "type": "uint256"
        }
      ],
      "name": "ownedTokensIndex",
      "outputs": [
        {
          "name": "",
          "type": "uint256"
        }
      ],
      "payable": false,
      "stateMutability": "view",
      "type": "function"
    },
    {
      "constant": false,
      "inputs": [
        {
          "name": "_to",
          "type": "address"
        },
        {
          "name": "_approved",
          "type": "bool"
        }
      ],
      "name": "setApprovalForAll",
      "outputs": [],
      "payable": false,
      "stateMutability": "nonpayable",
      "type": "function"
    },
    {
      "constant": true,
      "inputs": [
        {
          "name": "",
          "type": "uint256"
        }
      ],
      "name": "taxlogs",
      "outputs": [
        {
          "name": "tokenID",
          "type": "uint256"
        },
        {
          "name": "paidTaxes",
          "type": "uint256"
        },
        {
          "name": "incurredTaxes",
          "type": "uint256"
        },
        {
          "name": "lastTaxationDate",
          "type": "uint256"
        },
        {
          "name": "creationDate",
          "type": "uint256"
        },
        {
          "name": "presentTaxRate",
          "type": "uint256"
        },
        {
          "name": "secondlyTaxRate",
          "type": "uint256"
        }
      ],
      "payable": false,
      "stateMutability": "view",
      "type": "function"
    },
    {
      "constant": true,
      "inputs": [],
      "name": "totalKReceipts",
      "outputs": [
        {
          "name": "",
          "type": "uint256"
        }
      ],
      "payable": false,
      "stateMutability": "view",
      "type": "function"
    },
    {
      "constant": true,
      "inputs": [
        {
          "name": "",
          "type": "uint256"
        }
      ],
      "name": "harlics",
      "outputs": [
        {
          "name": "tokenID",
          "type": "uint256"
        },
        {
          "name": "turnoverRate",
          "type": "uint256"
        },
        {
          "name": "harlicValue",
          "type": "uint256"
        },
        {
          "name": "publicEquity",
          "type": "uint256"
        },
        {
          "name": "acquisitionsCounter",
          "type": "uint256"
        },
        {
          "name": "feeBeneficiary",
          "type": "address"
        },
        {
          "name": "videoID",
          "type": "string"
        }
      ],
      "payable": false,
      "stateMutability": "view",
      "type": "function"
    },
    {
      "constant": false,
      "inputs": [
        {
          "name": "_from",
          "type": "address"
        },
        {
          "name": "_to",
          "type": "address"
        },
        {
          "name": "_tokenId",
          "type": "uint256"
        },
        {
          "name": "_data",
          "type": "bytes"
        }
      ],
      "name": "safeTransferFrom",
      "outputs": [],
      "payable": false,
      "stateMutability": "nonpayable",
      "type": "function"
    },
    {
      "constant": true,
      "inputs": [
        {
          "name": "",
          "type": "uint256"
        }
      ],
      "name": "tokenHarlic",
      "outputs": [
        {
          "name": "",
          "type": "uint256"
        }
      ],
      "payable": false,
      "stateMutability": "view",
      "type": "function"
    },
    {
      "constant": true,
      "inputs": [
        {
          "name": "",
          "type": "address"
        },
        {
          "name": "",
          "type": "uint256"
        }
      ],
      "name": "ownedTokens",
      "outputs": [
        {
          "name": "",
          "type": "uint256"
        }
      ],
      "payable": false,
      "stateMutability": "view",
      "type": "function"
    },
    {
      "constant": true,
      "inputs": [
        {
          "name": "_owner",
          "type": "address"
        },
        {
          "name": "_operator",
          "type": "address"
        }
      ],
      "name": "isApprovedForAll",
      "outputs": [
        {
          "name": "",
          "type": "bool"
        }
      ],
      "payable": false,
      "stateMutability": "view",
      "type": "function"
    },
    {
      "constant": true,
      "inputs": [],
      "name": "payoutsTotal",
      "outputs": [
        {
          "name": "",
          "type": "uint256"
        }
      ],
      "payable": false,
      "stateMutability": "view",
      "type": "function"
    },
    {
      "inputs": [],
      "payable": false,
      "stateMutability": "nonpayable",
      "type": "constructor"
    },
    {
      "payable": true,
      "stateMutability": "payable",
      "type": "fallback"
    },
    {
      "anonymous": false,
      "inputs": [
        {
          "indexed": true,
          "name": "_owner",
          "type": "address"
        },
        {
          "indexed": false,
          "name": "_tokenId",
          "type": "uint256"
        }
      ],
      "name": "Confiscation",
      "type": "event"
    },
    {
      "anonymous": false,
      "inputs": [
        {
          "indexed": true,
          "name": "_from",
          "type": "address"
        },
        {
          "indexed": true,
          "name": "_to",
          "type": "address"
        },
        {
          "indexed": false,
          "name": "_tokenId",
          "type": "uint256"
        }
      ],
      "name": "Transfer",
      "type": "event"
    },
    {
      "anonymous": false,
      "inputs": [
        {
          "indexed": true,
          "name": "_owner",
          "type": "address"
        },
        {
          "indexed": true,
          "name": "_approved",
          "type": "address"
        },
        {
          "indexed": false,
          "name": "_tokenId",
          "type": "uint256"
        }
      ],
      "name": "Approval",
      "type": "event"
    },
    {
      "anonymous": false,
      "inputs": [
        {
          "indexed": true,
          "name": "_owner",
          "type": "address"
        },
        {
          "indexed": true,
          "name": "_operator",
          "type": "address"
        },
        {
          "indexed": false,
          "name": "_approved",
          "type": "bool"
        }
      ],
      "name": "ApprovalForAll",
      "type": "event"
    },
    {
      "constant": true,
      "inputs": [],
      "name": "name",
      "outputs": [
        {
          "name": "",
          "type": "string"
        }
      ],
      "payable": false,
      "stateMutability": "view",
      "type": "function"
    },
    {
      "constant": true,
      "inputs": [],
      "name": "symbol",
      "outputs": [
        {
          "name": "",
          "type": "string"
        }
      ],
      "payable": false,
      "stateMutability": "view",
      "type": "function"
    },
    {
      "constant": true,
      "inputs": [
        {
          "name": "_tokenId",
          "type": "uint256"
        }
      ],
      "name": "tokenURI",
      "outputs": [
        {
          "name": "",
          "type": "string"
        }
      ],
      "payable": false,
      "stateMutability": "view",
      "type": "function"
    },
    {
      "constant": true,
      "inputs": [
        {
          "name": "_owner",
          "type": "address"
        },
        {
          "name": "_index",
          "type": "uint256"
        }
      ],
      "name": "tokenOfOwnerByIndex",
      "outputs": [
        {
          "name": "",
          "type": "uint256"
        }
      ],
      "payable": false,
      "stateMutability": "view",
      "type": "function"
    },
    {
      "constant": true,
      "inputs": [],
      "name": "totalSupply",
      "outputs": [
        {
          "name": "",
          "type": "uint256"
        }
      ],
      "payable": false,
      "stateMutability": "view",
      "type": "function"
    },
    {
      "constant": true,
      "inputs": [
        {
          "name": "_index",
          "type": "uint256"
        }
      ],
      "name": "tokenByIndex",
      "outputs": [
        {
          "name": "",
          "type": "uint256"
        }
      ],
      "payable": false,
      "stateMutability": "view",
      "type": "function"
    },
    {
      "constant": false,
      "inputs": [
        {
          "name": "_to",
          "type": "address"
        },
        {
          "name": "_tokenId",
          "type": "uint256"
        },
        {
          "name": "_turnoverRate",
          "type": "uint256"
        },
        {
          "name": "_harlicValue",
          "type": "uint256"
        },
        {
          "name": "_publicEquity",
          "type": "uint256"
        },
        {
          "name": "_feeBeneficiary",
          "type": "address"
        },
        {
          "name": "_tokenURI",
          "type": "string"
        },
        {
          "name": "_videoID",
          "type": "string"
        }
      ],
      "name": "publicMint",
      "outputs": [
        {
          "name": "",
          "type": "bool"
        }
      ],
      "payable": false,
      "stateMutability": "nonpayable",
      "type": "function"
    },
    {
      "constant": false,
      "inputs": [
        {
          "name": "_tokenId",
          "type": "uint256"
        },
        {
          "name": "_value",
          "type": "uint256"
        }
      ],
      "name": "selfAssess",
      "outputs": [
        {
          "name": "",
          "type": "bool"
        }
      ],
      "payable": false,
      "stateMutability": "nonpayable",
      "type": "function"
    },
    {
      "constant": false,
      "inputs": [
        {
          "name": "_tokenId",
          "type": "uint256"
        },
        {
          "name": "_videoID",
          "type": "string"
        }
      ],
      "name": "changeVideo",
      "outputs": [
        {
          "name": "",
          "type": "bool"
        }
      ],
      "payable": false,
      "stateMutability": "nonpayable",
      "type": "function"
    },
    {
      "constant": false,
      "inputs": [
        {
          "name": "_tokenId",
          "type": "uint256"
        }
      ],
      "name": "calculateTax",
      "outputs": [
        {
          "name": "",
          "type": "uint256"
        }
      ],
      "payable": false,
      "stateMutability": "nonpayable",
      "type": "function"
    },
    {
      "constant": false,
      "inputs": [
        {
          "name": "_tokenId",
          "type": "uint256"
        }
      ],
      "name": "acquireToken",
      "outputs": [
        {
          "name": "",
          "type": "bool"
        }
      ],
      "payable": true,
      "stateMutability": "payable",
      "type": "function"
    },
    {
      "constant": false,
      "inputs": [
        {
          "name": "_tokenID",
          "type": "uint256"
        }
      ],
      "name": "confiscateToken",
      "outputs": [
        {
          "name": "",
          "type": "bool"
        }
      ],
      "payable": false,
      "stateMutability": "nonpayable",
      "type": "function"
    },
    {
      "constant": false,
      "inputs": [
        {
          "name": "_tokenId",
          "type": "uint256"
        }
      ],
      "name": "assessTax",
      "outputs": [
        {
          "name": "",
          "type": "uint256"
        },
        {
          "name": "",
          "type": "uint256"
        },
        {
          "name": "",
          "type": "uint256"
        }
      ],
      "payable": false,
      "stateMutability": "nonpayable",
      "type": "function"
    },
    {
      "constant": false,
      "inputs": [
        {
          "name": "_tokenId",
          "type": "uint256"
        }
      ],
      "name": "payTax",
      "outputs": [
        {
          "name": "",
          "type": "bool"
        }
      ],
      "payable": true,
      "stateMutability": "payable",
      "type": "function"
    },
    {
      "constant": false,
      "inputs": [
        {
          "name": "_tokenId",
          "type": "uint256"
        }
      ],
      "name": "getAcquisitionPrice",
      "outputs": [
        {
          "name": "",
          "type": "uint256"
        }
      ],
      "payable": false,
      "stateMutability": "nonpayable",
      "type": "function"
    },
    {
      "constant": true,
      "inputs": [
        {
          "name": "_tokenId",
          "type": "uint256"
        }
      ],
      "name": "simplePrice",
      "outputs": [
        {
          "name": "tIndex",
          "type": "uint256"
        },
        {
          "name": "harlicVal",
          "type": "uint256"
        },
        {
          "name": "pEquity",
          "type": "uint256"
        },
        {
          "name": "aPrice",
          "type": "uint256"
        }
      ],
      "payable": false,
      "stateMutability": "view",
      "type": "function"
    }
  ],
  "bytecode": "0x60806040523480156200001157600080fd5b506040805190810160405280601081526020017f4861726265726765724c6963656e736500000000000000000000000000000000815250600490805190602001906200005f929190620000b4565b506040805190810160405280600481526020017f484152420000000000000000000000000000000000000000000000000000000081525060059080519060200190620000ad929190620000b4565b5062000163565b828054600181600116156101000203166002900490600052602060002090601f016020900481019282601f10620000f757805160ff191683800117855562000128565b8280016001018555821562000128579182015b82811115620001275782518255916020019190600101906200010a565b5b5090506200013791906200013b565b5090565b6200016091905b808211156200015c57600081600090555060010162000142565b5090565b90565b613ae080620001736000396000f3006080604052600436106101cd576000357c0100000000000000000000000000000000000000000000000000000000900463ffffffff16806306fdde03146101cf578063081812fc1461025f578063086e6aa7146102cc578063095ea7b31461031b57806318160ddd1461036857806321d547771461039357806323b872dd146103d45780632f745c591461044157806342842e0e146104a257806342d8edea1461050f578063483a9310146105505780634f558e79146105915780634f6ccce7146105d65780636132b73714610617578063634282af146106665780636352211e146106a75780636c8b703f146107145780637054c687146107ba57806370a08231146107fb57806374e24367146108525780638ca114641461089357806395d89b41146108e9578063a05aaf5014610979578063a22cb465146109b1578063a4035a6b14610a00578063b01c1d0114610a45578063b2a8e9da14610ab0578063b40ee28e14610adb578063b88d4fde14610bd7578063c87b56dd14610c8a578063d181739014610d30578063d287de4814610d68578063d4d0814b14610da9578063da856fc514610e34578063e149f03614610f63578063e985e9c514610fc4578063f1a12cbc1461103f575b005b3480156101db57600080fd5b506101e461106a565b6040518080602001828103825283818151815260200191508051906020019080838360005b83811015610224578082015181840152602081019050610209565b50505050905090810190601f1680156102515780820380516001836020036101000a031916815260200191505b509250505060405180910390f35b34801561026b57600080fd5b5061028a6004803603810190808035906020019092919050505061110c565b604051808273ffffffffffffffffffffffffffffffffffffffff1673ffffffffffffffffffffffffffffffffffffffff16815260200191505060405180910390f35b3480156102d857600080fd5b506103016004803603810190808035906020019092919080359060200190929190505050611149565b604051808215151515815260200191505060405180910390f35b34801561032757600080fd5b50610366600480360381019080803573ffffffffffffffffffffffffffffffffffffffff1690602001909291908035906020019092919050505061129c565b005b34801561037457600080fd5b5061037d611462565b6040518082815260200191505060405180910390f35b34801561039f57600080fd5b506103be6004803603810190808035906020019092919050505061146f565b6040518082815260200191505060405180910390f35b3480156103e057600080fd5b5061043f600480360381019080803573ffffffffffffffffffffffffffffffffffffffff169060200190929190803573ffffffffffffffffffffffffffffffffffffffff169060200190929190803590602001909291905050506114fc565b005b34801561044d57600080fd5b5061048c600480360381019080803573ffffffffffffffffffffffffffffffffffffffff16906020019092919080359060200190929190505050611613565b6040518082815260200191505060405180910390f35b3480156104ae57600080fd5b5061050d600480360381019080803573ffffffffffffffffffffffffffffffffffffffff169060200190929190803573ffffffffffffffffffffffffffffffffffffffff1690602001909291908035906020019092919050505061168a565b005b34801561051b57600080fd5b5061053a600480360381019080803590602001909291905050506116c2565b6040518082815260200191505060405180910390f35b34801561055c57600080fd5b5061057b600480360381019080803590602001909291905050506116da565b6040518082815260200191505060405180910390f35b34801561059d57600080fd5b506105bc600480360381019080803590602001909291905050506118fe565b604051808215151515815260200191505060405180910390f35b3480156105e257600080fd5b506106016004803603810190808035906020019092919050505061196f565b6040518082815260200191505060405180910390f35b34801561062357600080fd5b50610642600480360381019080803590602001909291905050506119a7565b60405180848152602001838152602001828152602001935050505060405180910390f35b34801561067257600080fd5b5061069160048036038101908080359060200190929190505050611aac565b6040518082815260200191505060405180910390f35b3480156106b357600080fd5b506106d260048036038101908080359060200190929190505050611acf565b604051808273ffffffffffffffffffffffffffffffffffffffff1673ffffffffffffffffffffffffffffffffffffffff16815260200191505060405180910390f35b34801561072057600080fd5b5061073f60048036038101908080359060200190929190505050611b4c565b6040518080602001828103825283818151815260200191508051906020019080838360005b8381101561077f578082015181840152602081019050610764565b50505050905090810190601f1680156107ac5780820380516001836020036101000a031916815260200191505b509250505060405180910390f35b3480156107c657600080fd5b506107e560048036038101908080359060200190929190505050611bfc565b6040518082815260200191505060405180910390f35b34801561080757600080fd5b5061083c600480360381019080803573ffffffffffffffffffffffffffffffffffffffff169060200190929190505050611c14565b6040518082815260200191505060405180910390f35b34801561085e57600080fd5b5061087d60048036038101908080359060200190929190505050611c98565b6040518082815260200191505060405180910390f35b34801561089f57600080fd5b506108be60048036038101908080359060200190929190505050611cb0565b6040518085815260200184815260200183815260200182815260200194505050505060405180910390f35b3480156108f557600080fd5b506108fe611d8b565b6040518080602001828103825283818151815260200191508051906020019080838360005b8381101561093e578082015181840152602081019050610923565b50505050905090810190601f16801561096b5780820380516001836020036101000a031916815260200191505b509250505060405180910390f35b61099760048036038101908080359060200190929190505050611e2d565b604051808215151515815260200191505060405180910390f35b3480156109bd57600080fd5b506109fe600480360381019080803573ffffffffffffffffffffffffffffffffffffffff169060200190929190803515159060200190929190505050612032565b005b348015610a0c57600080fd5b50610a2b6004803603810190808035906020019092919050505061216e565b604051808215151515815260200191505060405180910390f35b348015610a5157600080fd5b50610a706004803603810190808035906020019092919050505061236d565b6040518088815260200187815260200186815260200185815260200184815260200183815260200182815260200197505050505050505060405180910390f35b348015610abc57600080fd5b50610ac56123be565b6040518082815260200191505060405180910390f35b348015610ae757600080fd5b50610b06600480360381019080803590602001909291905050506123c4565b604051808881526020018781526020018681526020018581526020018481526020018373ffffffffffffffffffffffffffffffffffffffff1673ffffffffffffffffffffffffffffffffffffffff16815260200180602001828103825283818151815260200191508051906020019080838360005b83811015610b96578082015181840152602081019050610b7b565b50505050905090810190601f168015610bc35780820380516001836020036101000a031916815260200191505b509850505050505050505060405180910390f35b348015610be357600080fd5b50610c88600480360381019080803573ffffffffffffffffffffffffffffffffffffffff169060200190929190803573ffffffffffffffffffffffffffffffffffffffff16906020019092919080359060200190929190803590602001908201803590602001908080601f01602080910402602001604051908101604052809392919081815260200183838082843782019150505050505091929192905050506124cd565b005b348015610c9657600080fd5b50610cb56004803603810190808035906020019092919050505061250c565b6040518080602001828103825283818151815260200191508051906020019080838360005b83811015610cf5578082015181840152602081019050610cda565b50505050905090810190601f168015610d225780820380516001836020036101000a031916815260200191505b509250505060405180910390f35b610d4e600480360381019080803590602001909291905050506125d5565b604051808215151515815260200191505060405180910390f35b348015610d7457600080fd5b50610d93600480360381019080803590602001909291905050506128dc565b6040518082815260200191505060405180910390f35b348015610db557600080fd5b50610e1a60048036038101908080359060200190929190803590602001908201803590602001908080601f01602080910402602001604051908101604052809392919081815260200183838082843782019150505050505091929192905050506128f4565b604051808215151515815260200191505060405180910390f35b348015610e4057600080fd5b50610f49600480360381019080803573ffffffffffffffffffffffffffffffffffffffff16906020019092919080359060200190929190803590602001909291908035906020019092919080359060200190929190803573ffffffffffffffffffffffffffffffffffffffff169060200190929190803590602001908201803590602001908080601f0160208091040260200160405190810160405280939291908181526020018383808284378201915050505050509192919290803590602001908201803590602001908080601f016020809104026020016040519081016040528093929190818152602001838380828437820191505050505050919291929050505061298d565b604051808215151515815260200191505060405180910390f35b348015610f6f57600080fd5b50610fae600480360381019080803573ffffffffffffffffffffffffffffffffffffffff16906020019092919080359060200190929190505050612bf8565b6040518082815260200191505060405180910390f35b348015610fd057600080fd5b50611025600480360381019080803573ffffffffffffffffffffffffffffffffffffffff169060200190929190803573ffffffffffffffffffffffffffffffffffffffff169060200190929190505050612c28565b604051808215151515815260200191505060405180910390f35b34801561104b57600080fd5b50611054612cbc565b6040518082815260200191505060405180910390f35b606060048054600181600116156101000203166002900480601f0160208091040260200160405190810160405280929190818152602001828054600181600116156101000203166002900480156111025780601f106110d757610100808354040283529160200191611102565b820191906000526020600020905b8154815290600101906020018083116110e557829003601f168201915b5050505050905090565b60006001600083815260200190815260200160002060009054906101000a900473ffffffffffffffffffffffffffffffffffffffff169050919050565b600080833373ffffffffffffffffffffffffffffffffffffffff1661116d82611acf565b73ffffffffffffffffffffffffffffffffffffffff1614151561118f57600080fd5b611198856119a7565b50505042600e838154811015156111ab57fe5b90600052602060002090600702016003015411151515611259576040517f08c379a00000000000000000000000000000000000000000000000000000000081526004018080602001828103825260358152602001807f4173736573736d656e742063616e6e6f742068617070656e20756e74696c206181526020017f66746572206c6173745461786174696f6e44617465000000000000000000000081525060400191505060405180910390fd5b600b600086815260200190815260200160002054915083600d8381548110151561127f57fe5b906000526020600020906007020160020181905550505092915050565b60006112a782611acf565b90508073ffffffffffffffffffffffffffffffffffffffff168373ffffffffffffffffffffffffffffffffffffffff16141515156112e457600080fd5b8073ffffffffffffffffffffffffffffffffffffffff163373ffffffffffffffffffffffffffffffffffffffff16148061132457506113238133612c28565b5b151561132f57600080fd5b600073ffffffffffffffffffffffffffffffffffffffff166113508361110c565b73ffffffffffffffffffffffffffffffffffffffff161415806113a05750600073ffffffffffffffffffffffffffffffffffffffff168373ffffffffffffffffffffffffffffffffffffffff1614155b1561145d57826001600084815260200190815260200160002060006101000a81548173ffffffffffffffffffffffffffffffffffffffff021916908373ffffffffffffffffffffffffffffffffffffffff1602179055508273ffffffffffffffffffffffffffffffffffffffff168173ffffffffffffffffffffffffffffffffffffffff167f8c5be1e5ebec7d5bd14f71427d1e84f3dd0314c0f7b2291e5b200ac8c7c3b925846040518082815260200191505060405180910390a35b505050565b6000600a80549050905090565b600080600061147d846119a7565b505050600b60008581526020019081526020016000205491506114f06114ca600d848154811015156114ab57fe5b90600052602060002090600702016002015466038d7ea4c68000612cc2565b600d848154811015156114d957fe5b906000526020600020906007020160030154612cfd565b90508092505050919050565b806115073382612d16565b151561151257600080fd5b600073ffffffffffffffffffffffffffffffffffffffff168473ffffffffffffffffffffffffffffffffffffffff161415151561154e57600080fd5b600073ffffffffffffffffffffffffffffffffffffffff168373ffffffffffffffffffffffffffffffffffffffff161415151561158a57600080fd5b6115948483612dab565b61159e8483612f14565b6115a8838361312c565b8273ffffffffffffffffffffffffffffffffffffffff168473ffffffffffffffffffffffffffffffffffffffff167fddf252ad1be2c89b69c2b068fc378daa952ba7f163c4a11628f55a4df523b3ef846040518082815260200191505060405180910390a350505050565b600061161e83611c14565b8210151561162b57600080fd5b600660008473ffffffffffffffffffffffffffffffffffffffff1673ffffffffffffffffffffffffffffffffffffffff1681526020019081526020016000208281548110151561167757fe5b9060005260206000200154905092915050565b806116953382612d16565b15156116a057600080fd5b6116bc84848460206040519081016040528060008152506124cd565b50505050565b600b6020528060005260406000206000915090505481565b6000806000806000806000806000600115156116f58b6118fe565b151514151561170357600080fd5b600b60008b815260200190815260200160002054975061174a600d8981548110151561172b57fe5b90600052602060002090600702016002015466038d7ea4c68000612cc2565b955061177642600e8a81548110151561175f57fe5b906000526020600020906007020160030154612cfd565b9450600d8881548110151561178757fe5b906000526020600020906007020160040154935060008414156117f1576117e66117de876117d963bbf81e00600d8d8154811015156117c257fe5b906000526020600020906007020160010154612cc2565b613203565b612710612cc2565b92506000915061187b565b61183361182b8761182663bbf81e00600d8d81548110151561180f57fe5b906000526020600020906007020160010154612cc2565b613203565b612710612cc2565b9250611878670de0b6b3a7640000611873670de0b6b3a7640000600d8c81548110151561185c57fe5b906000526020600020906007020160040154613203565b612cfd565b91505b6118966118888484612cc2565b670de0b6b3a7640000613203565b905082600e898154811015156118a857fe5b90600052602060002090600702016005018190555080600e898154811015156118cd57fe5b9060005260206000209060070201600601819055506118ec8186612cc2565b96508698505050505050505050919050565b60008060008084815260200190815260200160002060009054906101000a900473ffffffffffffffffffffffffffffffffffffffff169050600073ffffffffffffffffffffffffffffffffffffffff168173ffffffffffffffffffffffffffffffffffffffff161415915050919050565b6000611979611462565b8210151561198657600080fd5b600a8281548110151561199557fe5b90600052602060002001549050919050565b600080600080600080600080600b60008a81526020019081526020016000205494506119d2896116da565b935083600e868154811015156119e457fe5b906000526020600020906007020160020160008282540192505081905550600e85815481101515611a1157fe5b906000526020600020906007020160010154925082600e86815481101515611a3557fe5b90600052602060002090600702016002015403915081905080600d86815481101515611a5d57fe5b90600052602060002090600702016003018190555042600e86815481101515611a8257fe5b90600052602060002090600702016003018190555082828297509750975050505050509193909250565b600a81815481101515611abb57fe5b906000526020600020016000915090505481565b60008060008084815260200190815260200160002060009054906101000a900473ffffffffffffffffffffffffffffffffffffffff169050600073ffffffffffffffffffffffffffffffffffffffff168173ffffffffffffffffffffffffffffffffffffffff1614151515611b4357600080fd5b80915050919050565b600c6020528060005260406000206000915090508054600181600116156101000203166002900480601f016020809104026020016040519081016040528092919081815260200182805460018160011615610100020316600290048015611bf45780601f10611bc957610100808354040283529160200191611bf4565b820191906000526020600020905b815481529060010190602001808311611bd757829003601f168201915b505050505081565b60096020528060005260406000206000915090505481565b60008073ffffffffffffffffffffffffffffffffffffffff168273ffffffffffffffffffffffffffffffffffffffff1614151515611c5157600080fd5b600260008373ffffffffffffffffffffffffffffffffffffffff1673ffffffffffffffffffffffffffffffffffffffff168152602001908152602001600020549050919050565b60076020528060005260406000206000915090505481565b600080600080600080600080600b60008a8152602001908152602001600020549350600d84815481101515611ce157fe5b9060005260206000209060070201600201549250600d84815481101515611d0457fe5b9060005260206000209060070201600301549150611d72611d4c600d86815481101515611d2d57fe5b90600052602060002090600702016002015466038d7ea4c68000612cc2565b600d86815481101515611d5b57fe5b906000526020600020906007020160030154612cfd565b9050838383839750975097509750505050509193509193565b606060058054600181600116156101000203166002900480601f016020809104026020016040519081016040528092919081815260200182805460018160011615610100020316600290048015611e235780601f10611df857610100808354040283529160200191611e23565b820191906000526020600020905b815481529060010190602001808311611e0657829003601f168201915b5050505050905090565b600080600080600b6000868152602001908152602001600020549250611e52856119a7565b505050611e9f600e84815481101515611e6757fe5b906000526020600020906007020160020154600e85815481101515611e8857fe5b906000526020600020906007020160010154612cfd565b9150813411151515611f8b576040517f08c379a000000000000000000000000000000000000000000000000000000000815260040180806020018281038252606b8152602001807f596f75206d757374206e6f742073656e64206d6f7265207468616e207468652081526020017f616d6f756e74206f662074617820796f75206f77652e2020596f752073686f7581526020017f6c642073656e64206120626974206c657373207468616e2074686520616d6f7581526020017f6e7420796f75206f77652e00000000000000000000000000000000000000000081525060800191505060405180910390fd5b34600e84815481101515611f9b57fe5b906000526020600020906007020160010160008282540192505081905550612003600e84815481101515611fcb57fe5b906000526020600020906007020160020154600e85815481101515611fec57fe5b906000526020600020906007020160010154612cfd565b905080600d8481548110151561201557fe5b906000526020600020906007020160030181905550505050919050565b3373ffffffffffffffffffffffffffffffffffffffff168273ffffffffffffffffffffffffffffffffffffffff161415151561206d57600080fd5b80600360003373ffffffffffffffffffffffffffffffffffffffff1673ffffffffffffffffffffffffffffffffffffffff16815260200190815260200160002060008473ffffffffffffffffffffffffffffffffffffffff1673ffffffffffffffffffffffffffffffffffffffff16815260200190815260200160002060006101000a81548160ff0219169083151502179055508173ffffffffffffffffffffffffffffffffffffffff163373ffffffffffffffffffffffffffffffffffffffff167f17307eab39ab6107e8899845ad3d59bd9653f200f220920489ca2b5937696c3183604051808215151515815260200191505060405180910390a35050565b600080600080600b60008681526020019081526020016000205492506001600d8481548110151561219b57fe5b9060005260206000209060070201600301541191506121b985611acf565b9050600115158215151415612317576000600d848154811015156121d957fe5b9060005260206000209060070201600201819055506000600d848154811015156121ff57fe5b9060005260206000209060070201600301819055506040805190810160405280600b81526020017f445256707446334d473467000000000000000000000000000000000000000000815250600d8481548110151561225957fe5b9060005260206000209060070201600601908051906020019061227d9291906138d1565b506000600e8481548110151561228f57fe5b9060005260206000209060070201600101819055506000600e848154811015156122b557fe5b9060005260206000209060070201600101819055506000600e848154811015156122db57fe5b9060005260206000209060070201600201819055506000600e8481548110151561230157fe5b9060005260206000209060070201600601819055505b8073ffffffffffffffffffffffffffffffffffffffff167f0e7f39f15d0cbe4a2c8f604b94ceaa447b27752fd62252ed78eda9ce9f9d8114866040518082815260200191505060405180910390a2505050919050565b600e8181548110151561237c57fe5b90600052602060002090600702016000915090508060000154908060010154908060020154908060030154908060040154908060050154908060060154905087565b600f5481565b600d818154811015156123d357fe5b90600052602060002090600702016000915090508060000154908060010154908060020154908060030154908060040154908060050160009054906101000a900473ffffffffffffffffffffffffffffffffffffffff1690806006018054600181600116156101000203166002900480601f0160208091040260200160405190810160405280929190818152602001828054600181600116156101000203166002900480156124c35780601f10612498576101008083540402835291602001916124c3565b820191906000526020600020905b8154815290600101906020018083116124a657829003601f168201915b5050505050905087565b816124d83382612d16565b15156124e357600080fd5b6124ee8585856114fc565b6124fa8585858561321e565b151561250557600080fd5b5050505050565b6060612517826118fe565b151561252257600080fd5b600c60008381526020019081526020016000208054600181600116156101000203166002900480601f0160208091040260200160405190810160405280929190818152602001828054600181600116156101000203166002900480156125c95780601f1061259e576101008083540402835291602001916125c9565b820191906000526020600020905b8154815290600101906020018083116125ac57829003601f168201915b50505050509050919050565b60008060008060008060006125e9886119a7565b505050600b6000898152602001908152602001600020549550600d8681548110151561261157fe5b906000526020600020906007020160020154945061265f6126398666038d7ea4c68000612cc2565b600d8881548110151561264857fe5b906000526020600020906007020160030154612cfd565b935061266b3485612cfd565b925061267688611acf565b915033905083341015151561273f576040517f08c379a00000000000000000000000000000000000000000000000000000000081526004018080602001828103825260498152602001807f596f7520747269656420746f2073656e64206c657373207468616e207468652081526020017f6163717569736974696f6e2070726963652e20205472616e73616374696f6e2081526020017f72657665727465642e000000000000000000000000000000000000000000000081525060600191505060405180910390fd5b600073ffffffffffffffffffffffffffffffffffffffff168273ffffffffffffffffffffffffffffffffffffffff161415151561277b57600080fd5b600073ffffffffffffffffffffffffffffffffffffffff168173ffffffffffffffffffffffffffffffffffffffff16141515156127b757600080fd5b6127c18289612dab565b6127cb8289612f14565b6127d5818961312c565b600d868154811015156127e457fe5b90600052602060002090600702016004016000815480929190600101919050555061280f88846133f6565b5061281a8184613472565b8173ffffffffffffffffffffffffffffffffffffffff166108fc859081150290604051600060405180830381858888f19350505050158015612860573d6000803e3d6000fd5b5061286b8886611149565b508073ffffffffffffffffffffffffffffffffffffffff168273ffffffffffffffffffffffffffffffffffffffff167fddf252ad1be2c89b69c2b068fc378daa952ba7f163c4a11628f55a4df523b3ef8a6040518082815260200191505060405180910390a3505050505050919050565b60086020528060005260406000206000915090505481565b600080833373ffffffffffffffffffffffffffffffffffffffff1661291882611acf565b73ffffffffffffffffffffffffffffffffffffffff1614151561293a57600080fd5b600b600086815260200190815260200160002054915083600d8381548110151561296057fe5b906000526020600020906007020160060190805190602001906129849291906138d1565b50505092915050565b6000612997613951565b61299f6139a5565b600089101515156129af57600080fd5b600087101580156129c1575060648711155b15156129cc57600080fd5b60e0604051908101604052808b81526020018a8152602001898152602001888152602001600081526020018773ffffffffffffffffffffffffffffffffffffffff1681526020018581525091506001600d8390806001815401808255809150509060018203906000526020600020906007020160009091929091909150600082015181600001556020820151816001015560408201518160020155606082015181600301556080820151816004015560a08201518160050160006101000a81548173ffffffffffffffffffffffffffffffffffffffff021916908373ffffffffffffffffffffffffffffffffffffffff16021790555060c0820151816006019080519060200190612ade9291906139e3565b505050505060e0604051908101604052808b815260200160008152602001600081526020014281526020014281526020018a8152602001600081525090506001600e8290806001815401808255809150509060018203906000526020600020906007020160009091929091909150600082015181600001556020820151816001015560408201518160020155606082015181600301556080820151816004015560a0820151816005015560c08201518160060155505050506001600e8054905003600960008c8152602001908152602001600020819055506001600d8054905003600860008c815260200190815260200160002081905550612be08b8b6134d3565b612bea8a8661352a565b505098975050505050505050565b600660205281600052604060002081815481101515612c1357fe5b90600052602060002001600091509150505481565b6000600360008473ffffffffffffffffffffffffffffffffffffffff1673ffffffffffffffffffffffffffffffffffffffff16815260200190815260200160002060008373ffffffffffffffffffffffffffffffffffffffff1673ffffffffffffffffffffffffffffffffffffffff16815260200190815260200160002060009054906101000a900460ff16905092915050565b60105481565b6000806000841415612cd75760009150612cf6565b8284029050828482811515612ce857fe5b04141515612cf257fe5b8091505b5092915050565b6000828211151515612d0b57fe5b818303905092915050565b600080612d2283611acf565b90508073ffffffffffffffffffffffffffffffffffffffff168473ffffffffffffffffffffffffffffffffffffffff161480612d9157508373ffffffffffffffffffffffffffffffffffffffff16612d798461110c565b73ffffffffffffffffffffffffffffffffffffffff16145b80612da25750612da18185612c28565b5b91505092915050565b8173ffffffffffffffffffffffffffffffffffffffff16612dcb82611acf565b73ffffffffffffffffffffffffffffffffffffffff16141515612ded57600080fd5b600073ffffffffffffffffffffffffffffffffffffffff166001600083815260200190815260200160002060009054906101000a900473ffffffffffffffffffffffffffffffffffffffff1673ffffffffffffffffffffffffffffffffffffffff16141515612f105760006001600083815260200190815260200160002060006101000a81548173ffffffffffffffffffffffffffffffffffffffff021916908373ffffffffffffffffffffffffffffffffffffffff160217905550600073ffffffffffffffffffffffffffffffffffffffff168273ffffffffffffffffffffffffffffffffffffffff167f8c5be1e5ebec7d5bd14f71427d1e84f3dd0314c0f7b2291e5b200ac8c7c3b925836040518082815260200191505060405180910390a35b5050565b6000806000612f23858561356a565b60076000858152602001908152602001600020549250612f8f6001600660008873ffffffffffffffffffffffffffffffffffffffff1673ffffffffffffffffffffffffffffffffffffffff16815260200190815260200160002080549050612cfd90919063ffffffff16565b9150600660008673ffffffffffffffffffffffffffffffffffffffff1673ffffffffffffffffffffffffffffffffffffffff16815260200190815260200160002082815481101515612fdd57fe5b9060005260206000200154905080600660008773ffffffffffffffffffffffffffffffffffffffff1673ffffffffffffffffffffffffffffffffffffffff1681526020019081526020016000208481548110151561303757fe5b90600052602060002001819055506000600660008773ffffffffffffffffffffffffffffffffffffffff1673ffffffffffffffffffffffffffffffffffffffff1681526020019081526020016000208381548110151561309357fe5b9060005260206000200181905550600660008673ffffffffffffffffffffffffffffffffffffffff1673ffffffffffffffffffffffffffffffffffffffff1681526020019081526020016000208054809190600190036130f39190613a63565b50600060076000868152602001908152602001600020819055508260076000838152602001908152602001600020819055505050505050565b60006131388383613698565b600660008473ffffffffffffffffffffffffffffffffffffffff1673ffffffffffffffffffffffffffffffffffffffff168152602001908152602001600020805490509050600660008473ffffffffffffffffffffffffffffffffffffffff1673ffffffffffffffffffffffffffffffffffffffff168152602001908152602001600020829080600181540180825580915050906001820390600052602060002001600090919290919091505550806007600084815260200190815260200160002081905550505050565b600080828481151561321157fe5b0490508091505092915050565b60008061322a856137f0565b151561323957600191506133ed565b8473ffffffffffffffffffffffffffffffffffffffff1663f0b9e5ba8786866040518463ffffffff167c0100000000000000000000000000000000000000000000000000000000028152600401808473ffffffffffffffffffffffffffffffffffffffff1673ffffffffffffffffffffffffffffffffffffffff16815260200183815260200180602001828103825283818151815260200191508051906020019080838360005b838110156132fb5780820151818401526020810190506132e0565b50505050905090810190601f1680156133285780820380516001836020036101000a031916815260200191505b50945050505050602060405180830381600087803b15801561334957600080fd5b505af115801561335d573d6000803e3d6000fd5b505050506040513d602081101561337357600080fd5b8101908080519060200190929190505050905063f0b9e5ba7c0100000000000000000000000000000000000000000000000000000000027bffffffffffffffffffffffffffffffffffffffffffffffffffffffff1916817bffffffffffffffffffffffffffffffffffffffffffffffffffffffff19161491505b50949350505050565b600080600b600085815260200190815260200160002054905082600e8281548110151561341f57fe5b90600052602060002090600702016001016000828254019250508190555082600d8281548110151561344d57fe5b9060005260206000209060070201600301600082825403925050819055505092915050565b80600f6000828254019250508190555080601160008473ffffffffffffffffffffffffffffffffffffffff1673ffffffffffffffffffffffffffffffffffffffff168152602001908152602001600020600082825401925050819055505050565b6134dd8282613803565b600a80549050600b600083815260200190815260200160002081905550600a8190806001815401808255809150509060018203906000526020600020016000909192909190915055505050565b613533826118fe565b151561353e57600080fd5b80600c600084815260200190815260200160002090805190602001906135659291906138d1565b505050565b8173ffffffffffffffffffffffffffffffffffffffff1661358a82611acf565b73ffffffffffffffffffffffffffffffffffffffff161415156135ac57600080fd5b6135ff6001600260008573ffffffffffffffffffffffffffffffffffffffff1673ffffffffffffffffffffffffffffffffffffffff16815260200190815260200160002054612cfd90919063ffffffff16565b600260008473ffffffffffffffffffffffffffffffffffffffff1673ffffffffffffffffffffffffffffffffffffffff16815260200190815260200160002081905550600080600083815260200190815260200160002060006101000a81548173ffffffffffffffffffffffffffffffffffffffff021916908373ffffffffffffffffffffffffffffffffffffffff1602179055505050565b600073ffffffffffffffffffffffffffffffffffffffff1660008083815260200190815260200160002060009054906101000a900473ffffffffffffffffffffffffffffffffffffffff1673ffffffffffffffffffffffffffffffffffffffff1614151561370557600080fd5b8160008083815260200190815260200160002060006101000a81548173ffffffffffffffffffffffffffffffffffffffff021916908373ffffffffffffffffffffffffffffffffffffffff1602179055506137a96001600260008573ffffffffffffffffffffffffffffffffffffffff1673ffffffffffffffffffffffffffffffffffffffff168152602001908152602001600020546138b390919063ffffffff16565b600260008473ffffffffffffffffffffffffffffffffffffffff1673ffffffffffffffffffffffffffffffffffffffff168152602001908152602001600020819055505050565b600080823b905060008111915050919050565b600073ffffffffffffffffffffffffffffffffffffffff168273ffffffffffffffffffffffffffffffffffffffff161415151561383f57600080fd5b613849828261312c565b8173ffffffffffffffffffffffffffffffffffffffff16600073ffffffffffffffffffffffffffffffffffffffff167fddf252ad1be2c89b69c2b068fc378daa952ba7f163c4a11628f55a4df523b3ef836040518082815260200191505060405180910390a35050565b60008082840190508381101515156138c757fe5b8091505092915050565b828054600181600116156101000203166002900490600052602060002090601f016020900481019282601f1061391257805160ff1916838001178555613940565b82800160010185558215613940579182015b8281111561393f578251825591602001919060010190613924565b5b50905061394d9190613a8f565b5090565b60e0604051908101604052806000815260200160008152602001600081526020016000815260200160008152602001600073ffffffffffffffffffffffffffffffffffffffff168152602001606081525090565b60e060405190810160405280600081526020016000815260200160008152602001600081526020016000815260200160008152602001600081525090565b828054600181600116156101000203166002900490600052602060002090601f016020900481019282601f10613a2457805160ff1916838001178555613a52565b82800160010185558215613a52579182015b82811115613a51578251825591602001919060010190613a36565b5b509050613a5f9190613a8f565b5090565b815481835581811115613a8a57818360005260206000209182019101613a899190613a8f565b5b505050565b613ab191905b80821115613aad576000816000905550600101613a95565b5090565b905600a165627a7a72305820fea36ce842139094d323eb1a6cb16fcc0dffb1377c3132687716e3ce5d93c1680029",
  "source": "pragma solidity ^0.4.23;\n\nimport \"./ERC721.sol\";\nimport \"./ERC721BasicToken.sol\";\n\n/**\n * @title Full ERC721 Token\n * This implementation includes all the required and some optional functionality of the ERC721 standard\n * Moreover, it includes approve all functionality using operator terminology\n * @dev see https://github.com/ethereum/EIPs/blob/master/EIPS/eip-721.md\n */\ncontract ERC721HarbergerLicense is ERC721, ERC721BasicToken {\n  // Token name\n  string internal name_;\n\n  // Token symbol\n  string internal symbol_;\n\n  // Mapping from owner to list of owned token IDs\n  mapping(address => uint256[]) public ownedTokens;\n\n  // Mapping from token ID to index of the owner tokens list\n  mapping(uint256 => uint256) public ownedTokensIndex;\n\n  // Mapping from token ID to index of Harlic\n  mapping(uint256 => uint256) public tokenHarlic;\n\n  // Mapping from token ID to indices of Taxlog\n  mapping(uint256 => uint256) public tokenTaxlog;\n\n  // Array with all token ids, used for enumeration\n  uint256[] public allTokens;\n\n  // Mapping from token id to position in the allTokens array\n  mapping(uint256 => uint256) public allTokensIndex;\n\n  // Optional mapping for token URIs\n  mapping(uint256 => string) public tokenURIs;\n\n  /** EVENTS **/\n  event Confiscation(\n    address indexed _owner,\n    uint256 _tokenId\n  );\n\n  /** STRUCTS **/\n  struct Harlic {\n     uint256 tokenID;\n     uint256 turnoverRate; //turnovers per century\n     uint256 harlicValue; //in ether\n     uint256 publicEquity; //in wei\n     uint256 acquisitionsCounter; //counting acquisitions\n     address feeBeneficiary;\n     string videoID;\n  }\n\n  struct Taxlog {\n     uint256 tokenID;\n     uint256 paidTaxes; //in wei\n     uint256 incurredTaxes; //in wei\n     uint256 lastTaxationDate;\n     uint256 creationDate;\n     uint256 presentTaxRate;\n     uint256 secondlyTaxRate;\n\n  }\n\n  Harlic[] public harlics;\n  Taxlog[] public taxlogs;\n\n    /**\n  * @dev Dividend Calculating Variables\n  */\n\n  uint256 public totalKReceipts;\n  uint256 public payoutsTotal;\n  mapping (address => uint256) paymentsFromAddress;\n  mapping(address => uint256) payoutsToAddress;\n\n  /**\n   * @dev Constructor function\n   */\n  constructor() public {\n    name_ = \"HarbergerLicense\";\n    symbol_ = \"HARB\";\n  }\n\n  /**\n   * @dev Gets the token name\n   * @return string representing the token name\n   */\n  function name() public view returns (string) {\n    return name_;\n  }\n\n  /**\n   * @dev Gets the token symbol\n   * @return string representing the token symbol\n   */\n  function symbol() public view returns (string) {\n    return symbol_;\n  }\n\n  /**\n   * @dev Returns an URI for a given token ID\n   * @dev Throws if the token ID does not exist. May return an empty string.\n   * @param _tokenId uint256 ID of the token to query\n   */\n  function tokenURI(uint256 _tokenId) public view returns (string) {\n    require(exists(_tokenId));\n    return tokenURIs[_tokenId];\n  }\n\n  /**\n   * @dev Gets the token ID at a given index of the tokens list of the requested owner\n   * @param _owner address owning the tokens list to be accessed\n   * @param _index uint256 representing the index to be accessed of the requested tokens list\n   * @return uint256 token ID at the given index of the tokens list owned by the requested address\n   */\n  function tokenOfOwnerByIndex(\n    address _owner,\n    uint256 _index\n  )\n    public\n    view\n    returns (uint256)\n  {\n    require(_index < balanceOf(_owner));\n    return ownedTokens[_owner][_index];\n  }\n\n  /**\n   * @dev Gets the total amount of tokens stored by the contract\n   * @return uint256 representing the total amount of tokens\n   */\n  function totalSupply() public view returns (uint256) {\n    return allTokens.length;\n  }\n\n  /**\n   * @dev Gets the token ID at a given index of all the tokens in this contract\n   * @dev Reverts if the index is greater or equal to the total number of tokens\n   * @param _index uint256 representing the index to be accessed of the tokens list\n   * @return uint256 token ID at the given index of the tokens list\n   */\n  function tokenByIndex(uint256 _index) public view returns (uint256) {\n    require(_index < totalSupply());\n    return allTokens[_index];\n  }\n\n  /**\n   * @dev Internal function to set the token URI for a given token\n   * @dev Reverts if the token ID does not exist\n   * @param _tokenId uint256 ID of the token to set its URI\n   * @param _uri string URI to assign\n   */\n  function _setTokenURI(uint256 _tokenId, string _uri) internal {\n    require(exists(_tokenId));\n    tokenURIs[_tokenId] = _uri;\n  }\n\n  /**\n   * @dev Internal function to add a token ID to the list of a given address\n   * @param _to address representing the new owner of the given token ID\n   * @param _tokenId uint256 ID of the token to be added to the tokens list of the given address\n   */\n  function addTokenTo(address _to, uint256 _tokenId) internal {\n    super.addTokenTo(_to, _tokenId);\n    uint256 length = ownedTokens[_to].length;\n    ownedTokens[_to].push(_tokenId);\n    ownedTokensIndex[_tokenId] = length;\n  }\n\n  /**\n   * @dev Internal function to remove a token ID from the list of a given address\n   * @param _from address representing the previous owner of the given token ID\n   * @param _tokenId uint256 ID of the token to be removed from the tokens list of the given address\n   */\n  function removeTokenFrom(address _from, uint256 _tokenId) internal {\n    super.removeTokenFrom(_from, _tokenId);\n\n    uint256 tokenIndex = ownedTokensIndex[_tokenId];\n    uint256 lastTokenIndex = ownedTokens[_from].length.sub(1);\n    uint256 lastToken = ownedTokens[_from][lastTokenIndex];\n\n    ownedTokens[_from][tokenIndex] = lastToken;\n    ownedTokens[_from][lastTokenIndex] = 0;\n\n    ownedTokens[_from].length--;\n    ownedTokensIndex[_tokenId] = 0;\n    ownedTokensIndex[lastToken] = tokenIndex;\n  }\n\n  /**\n   * @dev Internal function to mint a new token\n   * @dev Reverts if the given token ID already exists\n   * @param _to address the beneficiary that will own the minted token\n   * @param _tokenId uint256 ID of the token to be minted by the msg.sender\n   */\n  function _mint(address _to, uint256 _tokenId) internal {\n    super._mint(_to, _tokenId);\n\n    allTokensIndex[_tokenId] = allTokens.length;\n    allTokens.push(_tokenId);\n  }\n\n  /**\n   * @dev Internal function to burn a specific token\n   * @dev Reverts if the token does not exist\n   * @param _owner owner of the token to burn\n   * @param _tokenId uint256 ID of the token being burned by the msg.sender\n   */\n  function _burn(address _owner, uint256 _tokenId) internal {\n    super._burn(_owner, _tokenId);\n\n    // Clear metadata (if any)\n    if (bytes(tokenURIs[_tokenId]).length != 0) {\n      delete tokenURIs[_tokenId];\n    }\n\n    // Reorg all tokens array\n    uint256 tokenIndex = allTokensIndex[_tokenId];\n    uint256 lastTokenIndex = allTokens.length.sub(1);\n    uint256 lastToken = allTokens[lastTokenIndex];\n\n    allTokens[tokenIndex] = lastToken;\n    allTokens[lastTokenIndex] = 0;\n\n    allTokens.length--;\n    allTokensIndex[_tokenId] = 0;\n    allTokensIndex[lastToken] = tokenIndex;\n  }\n\n    /**\n   * @dev Create a tokenID denoting a license\n   * @dev Throws if the token ID already exists.\n   * @param _to token owner\n   * @param _tokenId token ID, must be unique\n   * @param _turnoverRate yearly tax rate as percent.  I.e.: \"20\" gives a twenty percent yearly rate, calculated per second.  Corresponds to an asset that turns over once every five years (100/20).\n   * @param _harlicValue value in Mether of the HarbergerLicense (harlic)\n   * @param _publicEquity portion of the equity value, in ether, of the license that is owned by the contract/the public\n   * @param _feeBeneficiary beneficiary of HarbergerTaxes (usually same as TokenID owner but allows assignment of revenue stream)\n   * @param _tokenURI string name\n   */\n\n  function publicMint(      //put into the internal _mint after testing finished\n    address _to,\n    uint256 _tokenId,\n    uint256 _turnoverRate,\n    uint256 _harlicValue,\n    uint256 _publicEquity, //should be zero unless user donating to public\n    address _feeBeneficiary,\n    string _tokenURI,\n    string _videoID) public returns (bool) {\n\n    require(_turnoverRate >= 0); // as percentage\n    require(_publicEquity >= 0 && _publicEquity <= 100); // require percentage\n\n    Harlic memory _harlic = Harlic({\n        tokenID: _tokenId,\n        turnoverRate: _turnoverRate,\n        harlicValue: _harlicValue,\n        publicEquity: _publicEquity,\n        feeBeneficiary: _feeBeneficiary,\n        acquisitionsCounter: 0,\n        videoID: _videoID\n    });\n    harlics.push(_harlic) - 1; //create harlic struct for token\n\n    Taxlog memory _taxlog = Taxlog({\n        tokenID: _tokenId,\n        paidTaxes: 0,\n        incurredTaxes: 0,\n        creationDate: now,\n        lastTaxationDate: now,\n        presentTaxRate: _turnoverRate,\n        secondlyTaxRate: 0\n\n    });\n    taxlogs.push(_taxlog) - 1; //create taxlog struct for token\n\n\n\n    tokenTaxlog[_tokenId] = taxlogs.length - 1; //make record of associated taxlog\n    tokenHarlic[_tokenId] = harlics.length - 1; //make record of associated harlic\n\n    _mint(_to, _tokenId); //create token\n    _setTokenURI(_tokenId, _tokenURI); //set URI\n\n  }\n\n     /**\n   * @dev report new self-assessed value\n   * @dev new per-second tax rate immediately goes into effect.\n   * @dev causes previous tax rate to \"accrue\", i.e. be calculated by the calculateTax function\n   * @param _tokenId token ID, must be owned by you\n   * @param _value new value\n   */\n\n  function selfAssess (uint256 _tokenId, uint256 _value)\n    public onlyOwnerOf(_tokenId)\n    returns (bool) {\n\n    assessTax(_tokenId);\n\n    /*prevent out-of-chronological-order assessments*/\n    require(taxlogs[tokenIndex].lastTaxationDate <= now,\n    \"Assessment cannot happen until after lastTaxationDate\");\n\n    /*update self-assessed value*/\n    uint256 tokenIndex = allTokensIndex[_tokenId];\n    harlics[tokenIndex].harlicValue = _value;\n\n\n  }\n\n  function changeVideo (uint256 _tokenId, string _videoID)\n    public onlyOwnerOf(_tokenId)\n    returns (bool) {\n\n    /*update self-assessed value*/\n    uint256 tokenIndex = allTokensIndex[_tokenId];\n    harlics[tokenIndex].videoID = _videoID;\n\n  }\n\n\n  function reaffirmValue (uint256 _tokenId) //doesnt require owner of token to call\n    internal returns (bool) {\n\n    /*prevent out-of-chronological-order assessments*/\n    require(taxlogs[tokenIndex].lastTaxationDate <= now,\n    \"Assessment cannot happen until after lastTaxationDate\");\n\n    /*update self-assessed value with same value*/\n    uint256 tokenIndex = allTokensIndex[_tokenId];\n    uint256 sameValue = harlics[tokenIndex].harlicValue;\n    harlics[tokenIndex].harlicValue = sameValue;\n\n  }\n\n     /**\n   * @dev calculate accrued tax, paid or not--i.e. all taxes outside of the period formed by the most recent self-valuation\n   */\n\n  function calculateTax(uint256 _tokenId) public returns (uint256) {\n\n    /*tax calculation, working*/\n    require(exists(_tokenId) == true);\n    uint256 tokenIndex = allTokensIndex[_tokenId];\n    uint256 taxSinceLastAssessment;\n\n    uint256 periodValuationMEther = SafeMath.mul(harlics[tokenIndex].harlicValue, 1000000000000000);\n    uint256 periodLengthSeconds =\n        SafeMath.sub(now, taxlogs[tokenIndex].lastTaxationDate); // in seconds\n\n\n    uint256 totalTurnovers = harlics[tokenIndex].acquisitionsCounter;\n\n    if (totalTurnovers == 0) {\n\n        uint256 weiPerSecondTax = SafeMath.mul(SafeMath.div(periodValuationMEther, SafeMath.mul(3153600000, harlics[tokenIndex].turnoverRate)), 10000); //seconds in century / turnovers in century\n        uint256 creatorIncentive = 0;\n    } else {\n        weiPerSecondTax = SafeMath.mul(SafeMath.div(periodValuationMEther, SafeMath.mul(3153600000, harlics[tokenIndex].turnoverRate)), 10000); //seconds in century / turnovers in century\n        creatorIncentive = SafeMath.sub(1000000000000000000, SafeMath.div(1000000000000000000, harlics[tokenIndex].acquisitionsCounter));\n    }\n\n    uint256 decayedWeiPerSecondTax = SafeMath.div(SafeMath.mul(weiPerSecondTax, creatorIncentive), 1000000000000000000);\n\n\n        taxlogs[tokenIndex].presentTaxRate = weiPerSecondTax; //update taxrate\n        //taxlogs[tokenIndex].yearlyTurnovers = turnoversPerYear;\n        taxlogs[tokenIndex].secondlyTaxRate = decayedWeiPerSecondTax;\n\n        taxSinceLastAssessment = SafeMath.mul(decayedWeiPerSecondTax, periodLengthSeconds); //deflating\n\n    //taxlogs[tokenIndex].incurredTaxes = allTimeTax;\n    return (taxSinceLastAssessment);\n  }\n\n\n\n     /**\n   * @dev force-acquire token. value sent must equal or exceed current value of token less owner's current unpaid taxes\n   */\n\n  function acquireToken (uint256 _tokenId)\n    public payable returns (bool) {\n        assessTax(_tokenId); //update publicEquity value attaching to tokenId's harlic\n\n        uint256 tokenIndex = allTokensIndex[_tokenId];\n        uint256 latestSelfAssesedValue = harlics[tokenIndex].harlicValue;\n        uint256 acquisitionPrice = SafeMath.sub(SafeMath.mul(latestSelfAssesedValue, 1000000000000000), harlics[tokenIndex].publicEquity); //require acquiror to send harlic value less privateEquity to contract; this value to be forwarded to oldOwner\n        uint256 taxPayment = SafeMath.sub(msg.value, acquisitionPrice);\n        address oldOwner = ownerOf(_tokenId);\n        address newOwner = msg.sender;\n\n        require(msg.value >= acquisitionPrice,\n        \"You tried to send less than the acquisition price.  Transaction reverted.\");\n        //require(msg.value <= latestSelfAssesedValue,\n        //\"You tried to send more than the value of the asset.  Transaction reverted.\");\n        require(oldOwner != address(0));\n        require(newOwner != address(0));\n\n        clearApproval(oldOwner, _tokenId);\n        removeTokenFrom(oldOwner, _tokenId);\n        addTokenTo(newOwner, _tokenId);\n\n        harlics[tokenIndex].acquisitionsCounter ++;\n\n\n        //internal payTax function that applies sent value minus acquisition price to taxes\n        applyAcquisitionPaymentToTax(_tokenId, taxPayment);\n        trackPayments(newOwner, taxPayment);\n\n        //test:\n        oldOwner.transfer(acquisitionPrice);\n\n        selfAssess(_tokenId, latestSelfAssesedValue); //reassess token at same value\n\n        emit Transfer(oldOwner, newOwner, _tokenId);\n\n  }\n\n\n  /**\n   * @dev Confiscate token with PublicEquity >= 1ETH\n   */\n  function confiscateToken (uint _tokenID)\n    public returns (bool) {\n        uint256 tokenIndex = allTokensIndex[_tokenID];\n        bool delinquent = (harlics[tokenIndex].publicEquity > 1);\n        address owner = ownerOf(_tokenID);\n        if (delinquent == true) {\n\n            harlics[tokenIndex].harlicValue = 0;\n            harlics[tokenIndex].publicEquity = 0;\n            harlics[tokenIndex].videoID = \"DRVptF3MG4g\";\n            taxlogs[tokenIndex].paidTaxes = 0;\n            taxlogs[tokenIndex].paidTaxes = 0;\n            taxlogs[tokenIndex].incurredTaxes = 0;\n            taxlogs[tokenIndex].secondlyTaxRate = 0;\n\n        }\n\n        emit Confiscation(owner, _tokenID);\n    }\n\n  /**\n   * @dev Public function causing the confiscation of publicEquity corresponding to particular token\n   * @dev Sets the value of publicEquity of tokenId's harlic to the current level of unpaid taxes\n   * @dev TODO: cause this to presently re-appraise the token at the current value so that recent unpaid taxes accrue.\n   */\n  function assessTax (uint256 _tokenId)\n    public returns (uint256, uint256, uint256) {\n\n        uint256 index = allTokensIndex[_tokenId];\n        uint256 taxSinceLastAssessment = calculateTax(_tokenId);\n\n        taxlogs[index].incurredTaxes += taxSinceLastAssessment;\n\n        uint256 paidTaxes = taxlogs[index].paidTaxes;\n        uint256 owedTaxes = (taxlogs[index].incurredTaxes - paidTaxes); // not in SafeMath because 0 - 0 was throwing for some reasons\n        uint256 publicEquity = owedTaxes; //absolute (wei) publicEquity\n\n        harlics[index].publicEquity = publicEquity;\n\n        //reset lastTaxationDate\n        taxlogs[index].lastTaxationDate = now;\n\n        return (paidTaxes, owedTaxes, publicEquity);\n\n    }\n\n        /**\n   * @dev value sent with function applied against taxes\n   */\n\n  function payTax (uint256 _tokenId)\n    public payable returns (bool) {\n\n        uint256 index = allTokensIndex[_tokenId];\n\n        assessTax(_tokenId);\n\n        uint256 oldOwedTaxes = SafeMath.sub(taxlogs[index].incurredTaxes, taxlogs[index].paidTaxes);\n\n        require(msg.value <= oldOwedTaxes,\n        \"You must not send more than the amount of tax you owe.  You should send a bit less than the amount you owe.\");\n\n        taxlogs[index].paidTaxes += msg.value;\n\n        uint256 newOwedTaxes = SafeMath.sub(taxlogs[index].incurredTaxes, taxlogs[index].paidTaxes);\n\n        harlics[index].publicEquity = newOwedTaxes;\n    }\n\n  function applyAcquisitionPaymentToTax (uint256 _tokenId, uint256 _taxPayment)\n    internal returns (bool) {\n\n        uint256 index = allTokensIndex[_tokenId];\n\n        taxlogs[index].paidTaxes += _taxPayment;\n        harlics[index].publicEquity -= _taxPayment;\n\n    }\n\n  /**CUSTOM GETTERS**/\n\n  function getAcquisitionPrice (uint256 _tokenId) public returns (uint256) {\n    assessTax(_tokenId); //update publicEquity value attaching to tokenId's harlic\n\n    uint256 tokenIndex = allTokensIndex[_tokenId];\n    uint256 acquisitionPrice = SafeMath.sub(SafeMath.mul(harlics[tokenIndex].harlicValue, 1000000000000000), harlics[tokenIndex].publicEquity);\n\n    return acquisitionPrice;\n  }\n\n  function simplePrice (uint256 _tokenId) public view returns (uint256 tIndex, uint256 harlicVal, uint256 pEquity, uint256 aPrice) {\n\n    uint256 tokenIndex = allTokensIndex[_tokenId];\n    uint256 harlicValue = harlics[tokenIndex].harlicValue;\n    uint256 publicEquity = harlics[tokenIndex].publicEquity;\n    uint256 acquisitionPrice = SafeMath.sub(SafeMath.mul(harlics[tokenIndex].harlicValue, 1000000000000000), harlics[tokenIndex].publicEquity);\n\n    return (tokenIndex, harlicValue, publicEquity, acquisitionPrice);\n  }\n\n  function() public payable {\n\n  }\n\n  function trackPayments(address _address, uint256 _amountIn) internal {\n\n      totalKReceipts += _amountIn;\n      paymentsFromAddress[_address] += _amountIn;\n\n  }\n\n\n}\n",
  "sourcePath": "/Users/matthewprewitt/JustSavannah/contracts/ERC721HarbergerLicense.sol",
  "compiler": {
    "name": "solc",
    "version": "0.4.24+commit.e67f0147.Emscripten.clang"
  },
  "schemaVersion": "2.0.1",
  "updatedAt": "2018-10-03T15:48:00.576Z"
}