{
  "contractName": "Supervisor",
  "abi": [
    {
      "constant": true,
      "inputs": [
        {
          "name": "",
          "type": "uint256"
        }
      ],
      "name": "jobList",
      "outputs": [
        {
          "name": "jobCreator",
          "type": "address"
        },
        {
          "name": "jobDescription",
          "type": "string"
        },
        {
          "name": "postedTime",
          "type": "uint256"
        },
        {
          "name": "allSubTasksAccepted",
          "type": "bool"
        },
        {
          "name": "allSubTasksCompleted",
          "type": "bool"
        },
        {
          "name": "allSubTasksReviewed",
          "type": "bool"
        },
        {
          "name": "closed",
          "type": "bool"
        }
      ],
      "payable": false,
      "stateMutability": "view",
      "type": "function"
    },
    {
      "constant": true,
      "inputs": [
        {
          "name": "",
          "type": "uint256"
        }
      ],
      "name": "auditMap",
      "outputs": [
        {
          "name": "",
          "type": "uint256"
        }
      ],
      "payable": false,
      "stateMutability": "view",
      "type": "function"
    },
    {
      "constant": true,
      "inputs": [
        {
          "name": "",
          "type": "uint256"
        }
      ],
      "name": "testString",
      "outputs": [
        {
          "name": "",
          "type": "string"
        }
      ],
      "payable": false,
      "stateMutability": "view",
      "type": "function"
    },
    {
      "constant": true,
      "inputs": [
        {
          "name": "",
          "type": "uint256"
        }
      ],
      "name": "taskList",
      "outputs": [
        {
          "name": "taskCreator",
          "type": "address"
        },
        {
          "name": "taskDescription",
          "type": "string"
        },
        {
          "name": "referenceJobID",
          "type": "uint256"
        },
        {
          "name": "postedTime",
          "type": "uint256"
        },
        {
          "name": "bondAmount",
          "type": "uint256"
        },
        {
          "name": "maxPayAmount",
          "type": "uint256"
        },
        {
          "name": "timeLimit",
          "type": "uint32"
        },
        {
          "name": "auctionedTask",
          "type": "bool"
        },
        {
          "name": "accepted",
          "type": "bool"
        },
        {
          "name": "completed",
          "type": "bool"
        },
        {
          "name": "audited",
          "type": "bool"
        },
        {
          "name": "taskAcceptor",
          "type": "address"
        },
        {
          "name": "closeID",
          "type": "uint256"
        }
      ],
      "payable": false,
      "stateMutability": "view",
      "type": "function"
    },
    {
      "constant": true,
      "inputs": [
        {
          "name": "",
          "type": "uint256"
        }
      ],
      "name": "auditList",
      "outputs": [
        {
          "name": "auditCreator",
          "type": "address"
        },
        {
          "name": "auditDescription",
          "type": "string"
        },
        {
          "name": "auditeeTask",
          "type": "uint256"
        },
        {
          "name": "postedTime",
          "type": "uint256"
        },
        {
          "name": "bondAmount",
          "type": "uint256"
        },
        {
          "name": "maxPayAmount",
          "type": "uint256"
        },
        {
          "name": "timeLimit",
          "type": "uint32"
        },
        {
          "name": "auctionedAudit",
          "type": "bool"
        },
        {
          "name": "accepted",
          "type": "bool"
        },
        {
          "name": "completed",
          "type": "bool"
        },
        {
          "name": "reAudited",
          "type": "bool"
        },
        {
          "name": "auditAcceptor",
          "type": "address"
        },
        {
          "name": "closeID",
          "type": "uint256"
        }
      ],
      "payable": false,
      "stateMutability": "view",
      "type": "function"
    },
    {
      "constant": true,
      "inputs": [
        {
          "name": "",
          "type": "uint256"
        }
      ],
      "name": "closeList",
      "outputs": [
        {
          "name": "postedTime",
          "type": "uint256"
        },
        {
          "name": "referenceTaskOrAudit",
          "type": "uint256"
        },
        {
          "name": "trueIfAuditClose",
          "type": "bool"
        },
        {
          "name": "returnedBond",
          "type": "bool"
        },
        {
          "name": "paidWage",
          "type": "bool"
        }
      ],
      "payable": false,
      "stateMutability": "view",
      "type": "function"
    },
    {
      "constant": true,
      "inputs": [
        {
          "name": "",
          "type": "address"
        }
      ],
      "name": "postedFunds",
      "outputs": [
        {
          "name": "",
          "type": "uint256"
        }
      ],
      "payable": false,
      "stateMutability": "view",
      "type": "function"
    },
    {
      "constant": true,
      "inputs": [
        {
          "name": "",
          "type": "uint256"
        },
        {
          "name": "",
          "type": "uint256"
        }
      ],
      "name": "jobTasks",
      "outputs": [
        {
          "name": "",
          "type": "uint256"
        }
      ],
      "payable": false,
      "stateMutability": "view",
      "type": "function"
    },
    {
      "payable": true,
      "stateMutability": "payable",
      "type": "fallback"
    },
    {
      "anonymous": false,
      "inputs": [
        {
          "indexed": true,
          "name": "taskPoster",
          "type": "address"
        },
        {
          "indexed": false,
          "name": "taskID",
          "type": "uint256"
        }
      ],
      "name": "TaskPosted",
      "type": "event"
    },
    {
      "anonymous": false,
      "inputs": [],
      "name": "TaskClosed",
      "type": "event"
    },
    {
      "anonymous": false,
      "inputs": [
        {
          "indexed": true,
          "name": "jobPoster",
          "type": "address"
        },
        {
          "indexed": false,
          "name": "jobID",
          "type": "uint256"
        }
      ],
      "name": "JobPosted",
      "type": "event"
    },
    {
      "anonymous": false,
      "inputs": [],
      "name": "JobClosed",
      "type": "event"
    },
    {
      "constant": false,
      "inputs": [
        {
          "name": "_testString",
          "type": "string"
        }
      ],
      "name": "testStoreString",
      "outputs": [
        {
          "name": "",
          "type": "bool"
        }
      ],
      "payable": false,
      "stateMutability": "nonpayable",
      "type": "function"
    },
    {
      "constant": false,
      "inputs": [
        {
          "name": "_jobDescription",
          "type": "string"
        }
      ],
      "name": "createJob",
      "outputs": [
        {
          "name": "",
          "type": "uint256"
        }
      ],
      "payable": false,
      "stateMutability": "nonpayable",
      "type": "function"
    },
    {
      "constant": false,
      "inputs": [
        {
          "name": "_taskDescription",
          "type": "string"
        },
        {
          "name": "_referenceJobID",
          "type": "uint256"
        },
        {
          "name": "_bondAmount",
          "type": "uint256"
        },
        {
          "name": "_maxPayAmount",
          "type": "uint256"
        },
        {
          "name": "_timeLimit",
          "type": "uint32"
        },
        {
          "name": "_auctionedTask",
          "type": "bool"
        }
      ],
      "name": "createTask",
      "outputs": [
        {
          "name": "",
          "type": "uint256"
        }
      ],
      "payable": true,
      "stateMutability": "payable",
      "type": "function"
    },
    {
      "constant": false,
      "inputs": [
        {
          "name": "_auditDescription",
          "type": "string"
        },
        {
          "name": "_auditeeTask",
          "type": "uint256"
        },
        {
          "name": "_bondAmount",
          "type": "uint256"
        },
        {
          "name": "_maxPayAmount",
          "type": "uint256"
        },
        {
          "name": "_timeLimit",
          "type": "uint32"
        },
        {
          "name": "_auctionedAudit",
          "type": "bool"
        }
      ],
      "name": "createAudit",
      "outputs": [
        {
          "name": "",
          "type": "uint256"
        }
      ],
      "payable": true,
      "stateMutability": "payable",
      "type": "function"
    },
    {
      "constant": false,
      "inputs": [
        {
          "name": "_taskID",
          "type": "uint256"
        }
      ],
      "name": "acceptTask",
      "outputs": [],
      "payable": true,
      "stateMutability": "payable",
      "type": "function"
    },
    {
      "constant": false,
      "inputs": [
        {
          "name": "_auditID",
          "type": "uint256"
        }
      ],
      "name": "acceptAudit",
      "outputs": [],
      "payable": true,
      "stateMutability": "payable",
      "type": "function"
    },
    {
      "constant": false,
      "inputs": [
        {
          "name": "_taskID",
          "type": "uint256"
        }
      ],
      "name": "markTaskComplete",
      "outputs": [],
      "payable": false,
      "stateMutability": "nonpayable",
      "type": "function"
    },
    {
      "constant": false,
      "inputs": [
        {
          "name": "_auditID",
          "type": "uint256"
        }
      ],
      "name": "markAuditComplete",
      "outputs": [],
      "payable": false,
      "stateMutability": "nonpayable",
      "type": "function"
    },
    {
      "constant": false,
      "inputs": [
        {
          "name": "_taskID",
          "type": "uint256"
        },
        {
          "name": "_returnBond",
          "type": "bool"
        },
        {
          "name": "_remitPay",
          "type": "bool"
        }
      ],
      "name": "closeOutTask",
      "outputs": [
        {
          "name": "",
          "type": "uint256"
        }
      ],
      "payable": false,
      "stateMutability": "nonpayable",
      "type": "function"
    },
    {
      "constant": false,
      "inputs": [
        {
          "name": "_auditID",
          "type": "uint256"
        },
        {
          "name": "_returnBond",
          "type": "bool"
        },
        {
          "name": "_remitPay",
          "type": "bool"
        }
      ],
      "name": "closeOutAudit",
      "outputs": [
        {
          "name": "",
          "type": "uint256"
        }
      ],
      "payable": false,
      "stateMutability": "nonpayable",
      "type": "function"
    },
    {
      "constant": true,
      "inputs": [],
      "name": "testStringGetter",
      "outputs": [
        {
          "name": "numberOfStrings",
          "type": "uint256"
        },
        {
          "name": "lastString",
          "type": "string"
        }
      ],
      "payable": false,
      "stateMutability": "view",
      "type": "function"
    },
    {
      "constant": true,
      "inputs": [
        {
          "name": "_jobID",
          "type": "uint256"
        },
        {
          "name": "_jobTask",
          "type": "uint256"
        }
      ],
      "name": "getJobSizeAndTaskID",
      "outputs": [
        {
          "name": "numberOfTaskIDs",
          "type": "uint256"
        },
        {
          "name": "calledTaskID",
          "type": "uint256"
        }
      ],
      "payable": false,
      "stateMutability": "view",
      "type": "function"
    },
    {
      "constant": true,
      "inputs": [],
      "name": "getContractBalance",
      "outputs": [
        {
          "name": "",
          "type": "uint256"
        }
      ],
      "payable": false,
      "stateMutability": "view",
      "type": "function"
    },
    {
      "constant": true,
      "inputs": [],
      "name": "checkEtherSentToContract",
      "outputs": [
        {
          "name": "",
          "type": "uint256"
        }
      ],
      "payable": false,
      "stateMutability": "view",
      "type": "function"
    },
    {
      "constant": true,
      "inputs": [],
      "name": "checkContractAddress",
      "outputs": [
        {
          "name": "contractAddress",
          "type": "address"
        }
      ],
      "payable": false,
      "stateMutability": "view",
      "type": "function"
    },
    {
      "constant": true,
      "inputs": [
        {
          "name": "_taskID",
          "type": "uint256"
        }
      ],
      "name": "taskListGetter",
      "outputs": [
        {
          "name": "",
          "type": "string"
        }
      ],
      "payable": false,
      "stateMutability": "view",
      "type": "function"
    },
    {
      "constant": true,
      "inputs": [
        {
          "name": "_jobID",
          "type": "uint256"
        }
      ],
      "name": "jobTasklistGetter",
      "outputs": [
        {
          "name": "",
          "type": "uint256[]"
        }
      ],
      "payable": false,
      "stateMutability": "view",
      "type": "function"
    }
  ],
  "bytecode": "0x608060405234801561001057600080fd5b50613554806100206000396000f300608060405260043610610149576000357c0100000000000000000000000000000000000000000000000000000000900463ffffffff1680630c33c5221461019857806319d271b2146102a45780631bf6912d146102e557806327554be5146103055780632a1c52a5146103ab5780633c5d5c531461051957806341c743831461068757806346f13edf146106f0578063514a86281461079a5780635271bf48146107f1578063580f69dd14610888578063676f5b61146108e15780636f9fb98a14610938578063815faf59146109635780638c057f3a146109bc578063a1b428c414610a3d578063aafa944e14610a6a578063b733ca3614610ae7578063b90bbe4114610b14578063bdc7a04814610b3f578063cd73b36214610b5f578063d81af86914610c09578063dc82cf9914610c5b578063e2090e1214610cdd578063e329171514610d83575b34600760003373ffffffffffffffffffffffffffffffffffffffff1673ffffffffffffffffffffffffffffffffffffffff16815260200190815260200160002060008282540192505081905550005b3480156101a457600080fd5b506101c360048036038101908080359060200190929190505050610dce565b604051808873ffffffffffffffffffffffffffffffffffffffff1673ffffffffffffffffffffffffffffffffffffffff1681526020018060200187815260200186151515158152602001851515151581526020018415151515815260200183151515158152602001828103825288818151815260200191508051906020019080838360005b83811015610263578082015181840152602081019050610248565b50505050905090810190601f1680156102905780820380516001836020036101000a031916815260200191505b509850505050505050505060405180910390f35b3480156102b057600080fd5b506102cf60048036038101908080359060200190929190505050610f0b565b6040518082815260200191505060405180910390f35b61030360048036038101908080359060200190929190505050610f23565b005b34801561031157600080fd5b5061033060048036038101908080359060200190929190505050611168565b6040518080602001828103825283818151815260200191508051906020019080838360005b83811015610370578082015181840152602081019050610355565b50505050905090810190601f16801561039d5780820380516001836020036101000a031916815260200191505b509250505060405180910390f35b3480156103b757600080fd5b506103d660048036038101908080359060200190929190505050611223565b604051808e73ffffffffffffffffffffffffffffffffffffffff1673ffffffffffffffffffffffffffffffffffffffff168152602001806020018d81526020018c81526020018b81526020018a81526020018963ffffffff1663ffffffff168152602001881515151581526020018715151515815260200186151515158152602001851515151581526020018473ffffffffffffffffffffffffffffffffffffffff1673ffffffffffffffffffffffffffffffffffffffff16815260200183815260200182810382528e818151815260200191508051906020019080838360005b838110156104d25780820151818401526020810190506104b7565b50505050905090810190601f1680156104ff5780820380516001836020036101000a031916815260200191505b509e50505050505050505050505050505060405180910390f35b34801561052557600080fd5b50610544600480360381019080803590602001909291905050506113b4565b604051808e73ffffffffffffffffffffffffffffffffffffffff1673ffffffffffffffffffffffffffffffffffffffff168152602001806020018d81526020018c81526020018b81526020018a81526020018963ffffffff1663ffffffff168152602001881515151581526020018715151515815260200186151515158152602001851515151581526020018473ffffffffffffffffffffffffffffffffffffffff1673ffffffffffffffffffffffffffffffffffffffff16815260200183815260200182810382528e818151815260200191508051906020019080838360005b83811015610640578082015181840152602081019050610625565b50505050905090810190601f16801561066d5780820380516001836020036101000a031916815260200191505b509e50505050505050505050505050505060405180910390f35b34801561069357600080fd5b506106b260048036038101908080359060200190929190505050611545565b604051808681526020018581526020018415151515815260200183151515158152602001821515151581526020019550505050505060405180910390f35b610784600480360381019080803590602001908201803590602001908080601f0160208091040260200160405190810160405280939291908181526020018383808284378201915050505050509192919290803590602001909291908035906020019092919080359060200190929190803563ffffffff1690602001909291908035151590602001909291905050506115b1565b6040518082815260200191505060405180910390f35b3480156107a657600080fd5b506107af61195c565b604051808273ffffffffffffffffffffffffffffffffffffffff1673ffffffffffffffffffffffffffffffffffffffff16815260200191505060405180910390f35b3480156107fd57600080fd5b50610806611967565b6040518083815260200180602001828103825283818151815260200191508051906020019080838360005b8381101561084c578082015181840152602081019050610831565b50505050905090810190601f1680156108795780820380516001836020036101000a031916815260200191505b50935050505060405180910390f35b34801561089457600080fd5b506108cb60048036038101908080359060200190929190803515159060200190929190803515159060200190929190505050611a3c565b6040518082815260200191505060405180910390f35b3480156108ed57600080fd5b50610922600480360381019080803573ffffffffffffffffffffffffffffffffffffffff169060200190929190505050611f99565b6040518082815260200191505060405180910390f35b34801561094457600080fd5b5061094d611fb1565b6040518082815260200191505060405180910390f35b34801561096f57600080fd5b506109a660048036038101908080359060200190929190803515159060200190929190803515159060200190929190505050611fd0565b6040518082815260200191505060405180910390f35b3480156109c857600080fd5b50610a23600480360381019080803590602001908201803590602001908080601f016020809104026020016040519081016040528093929190818152602001838380828437820191505050505050919291929050505061252d565b604051808215151515815260200191505060405180910390f35b348015610a4957600080fd5b50610a686004803603810190808035906020019092919050505061257a565b005b348015610a7657600080fd5b50610ad1600480360381019080803590602001908201803590602001908080601f016020809104026020016040519081016040528093929190818152602001838380828437820191505050505050919291929050505061268e565b6040518082815260200191505060405180910390f35b348015610af357600080fd5b50610b126004803603810190808035906020019092919050505061286d565b005b348015610b2057600080fd5b50610b29612922565b6040518082815260200191505060405180910390f35b610b5d6004803603810190808035906020019092919050505061296e565b005b610bf3600480360381019080803590602001908201803590602001908080601f0160208091040260200160405190810160405280939291908181526020018383808284378201915050505050509192919290803590602001909291908035906020019092919080359060200190929190803563ffffffff169060200190929190803515159060200190929190505050612c55565b6040518082815260200191505060405180910390f35b348015610c1557600080fd5b50610c3e6004803603810190808035906020019092919080359060200190929190505050613043565b604051808381526020018281526020019250505060405180910390f35b348015610c6757600080fd5b50610c8660048036038101908080359060200190929190505050613093565b6040518080602001828103825283818151815260200191508051906020019060200280838360005b83811015610cc9578082015181840152602081019050610cae565b505050509050019250505060405180910390f35b348015610ce957600080fd5b50610d08600480360381019080803590602001909291905050506130fe565b6040518080602001828103825283818151815260200191508051906020019080838360005b83811015610d48578082015181840152602081019050610d2d565b50505050905090810190601f168015610d755780820380516001836020036101000a031916815260200191505b509250505060405180910390f35b348015610d8f57600080fd5b50610db860048036038101908080359060200190929190803590602001909291905050506131c0565b6040518082815260200191505060405180910390f35b600081815481101515610ddd57fe5b90600052602060002090600402016000915090508060000160009054906101000a900473ffffffffffffffffffffffffffffffffffffffff1690806001018054600181600116156101000203166002900480601f016020809104026020016040519081016040528092919081815260200182805460018160011615610100020316600290048015610eaf5780601f10610e8457610100808354040283529160200191610eaf565b820191906000526020600020905b815481529060010190602001808311610e9257829003601f168201915b5050505050908060020154908060030160009054906101000a900460ff16908060030160019054906101000a900460ff16908060030160029054906101000a900460ff16908060030160039054906101000a900460ff16905087565b60066020528060005260406000206000915090505481565b600081905060001515600182815481101515610f3b57fe5b906000526020600020906008020160060160059054906101000a900460ff161515141515610f6857600080fd5b60001515600182815481101515610f7b57fe5b906000526020600020906008020160060160049054906101000a900460ff161515141515610fa857600080fd5b6000600182815481101515610fb957fe5b906000526020600020906008020160060160009054906101000a900463ffffffff1663ffffffff1611156110525742610e10600183815481101515610ffa57fe5b906000526020600020906008020160060160009054906101000a900463ffffffff160263ffffffff1660018381548110151561103257fe5b9060005260206000209060080201600301540111151561105157600080fd5b5b34600760003373ffffffffffffffffffffffffffffffffffffffff1673ffffffffffffffffffffffffffffffffffffffff168152602001908152602001600020600082825401925050819055506001818154811015156110ae57fe5b906000526020600020906008020160040154341415156110cd57600080fd5b336001828154811015156110dd57fe5b906000526020600020906008020160060160086101000a81548173ffffffffffffffffffffffffffffffffffffffff021916908373ffffffffffffffffffffffffffffffffffffffff1602179055506001808281548110151561113c57fe5b906000526020600020906008020160060160056101000a81548160ff0219169083151502179055505050565b60048181548110151561117757fe5b906000526020600020016000915090508054600181600116156101000203166002900480601f01602080910402602001604051908101604052809291908181526020018280546001816001161561010002031660029004801561121b5780601f106111f05761010080835404028352916020019161121b565b820191906000526020600020905b8154815290600101906020018083116111fe57829003601f168201915b505050505081565b60018181548110151561123257fe5b90600052602060002090600802016000915090508060000160009054906101000a900473ffffffffffffffffffffffffffffffffffffffff1690806001018054600181600116156101000203166002900480601f0160208091040260200160405190810160405280929190818152602001828054600181600116156101000203166002900480156113045780601f106112d957610100808354040283529160200191611304565b820191906000526020600020905b8154815290600101906020018083116112e757829003601f168201915b5050505050908060020154908060030154908060040154908060050154908060060160009054906101000a900463ffffffff16908060060160049054906101000a900460ff16908060060160059054906101000a900460ff16908060060160069054906101000a900460ff16908060060160079054906101000a900460ff16908060060160089054906101000a900473ffffffffffffffffffffffffffffffffffffffff1690806007015490508d565b6002818154811015156113c357fe5b90600052602060002090600802016000915090508060000160009054906101000a900473ffffffffffffffffffffffffffffffffffffffff1690806001018054600181600116156101000203166002900480601f0160208091040260200160405190810160405280929190818152602001828054600181600116156101000203166002900480156114955780601f1061146a57610100808354040283529160200191611495565b820191906000526020600020905b81548152906001019060200180831161147857829003601f168201915b5050505050908060020154908060030154908060040154908060050154908060060160009054906101000a900463ffffffff16908060060160049054906101000a900460ff16908060060160059054906101000a900460ff16908060060160069054906101000a900460ff16908060060160079054906101000a900460ff16908060060160089054906101000a900473ffffffffffffffffffffffffffffffffffffffff1690806007015490508d565b60038181548110151561155457fe5b90600052602060002090600302016000915090508060000154908060010154908060020160009054906101000a900460ff16908060020160019054906101000a900460ff16908060020160029054906101000a900460ff16905085565b60006115bb61322b565b60006101a0604051908101604052803373ffffffffffffffffffffffffffffffffffffffff1681526020018a81526020018981526020014281526020016116098966038d7ea4c680006131f0565b815260200161161f8866038d7ea4c680006131f0565b81526020018663ffffffff1681526020018515158152602001600015158152602001600015158152602001600015158152602001600073ffffffffffffffffffffffffffffffffffffffff168152602001600081525091506000881415156116fc5760018881548110151561169057fe5b906000526020600020906008020160000160009054906101000a900473ffffffffffffffffffffffffffffffffffffffff1673ffffffffffffffffffffffffffffffffffffffff163373ffffffffffffffffffffffffffffffffffffffff161415156116fb57600080fd5b5b60016002839080600181540180825580915050906001820390600052602060002090600802016000909192909190915060008201518160000160006101000a81548173ffffffffffffffffffffffffffffffffffffffff021916908373ffffffffffffffffffffffffffffffffffffffff160217905550602082015181600101908051906020019061178f9291906132ce565b5060408201518160020155606082015181600301556080820151816004015560a0820151816005015560c08201518160060160006101000a81548163ffffffff021916908363ffffffff16021790555060e08201518160060160046101000a81548160ff0219169083151502179055506101008201518160060160056101000a81548160ff0219169083151502179055506101208201518160060160066101000a81548160ff0219169083151502179055506101408201518160060160076101000a81548160ff0219169083151502179055506101608201518160060160086101000a81548173ffffffffffffffffffffffffffffffffffffffff021916908373ffffffffffffffffffffffffffffffffffffffff1602179055506101808201518160070155505003905080600660008a81526020019081526020016000208190555034600760003373ffffffffffffffffffffffffffffffffffffffff1673ffffffffffffffffffffffffffffffffffffffff1681526020019081526020016000206000828254019250508190555060028181548110151561192e57fe5b9060005260206000209060080201600501543414151561194d57600080fd5b80925050509695505050505050565b600030905080905090565b600060606000600160048054905003905060048054905060048281548110151561198d57fe5b90600052602060002001808054600181600116156101000203166002900480601f016020809104026020016040519081016040528092919081815260200182805460018160011615610100020316600290048015611a2c5780601f10611a0157610100808354040283529160200191611a2c565b820191906000526020600020905b815481529060010190602001808311611a0f57829003601f168201915b5050505050905092509250509091565b6000806000611a4961334e565b600080600289815481101515611a5b57fe5b906000526020600020906008020160060160089054906101000a900473ffffffffffffffffffffffffffffffffffffffff169350600289815481101515611a9e57fe5b906000526020600020906008020160000160009054906101000a900473ffffffffffffffffffffffffffffffffffffffff1673ffffffffffffffffffffffffffffffffffffffff163373ffffffffffffffffffffffffffffffffffffffff16141515611b0957600080fd5b600289815481101515611b1857fe5b906000526020600020906008020160050154600760003373ffffffffffffffffffffffffffffffffffffffff1673ffffffffffffffffffffffffffffffffffffffff1681526020019081526020016000205410151515611b7757600080fd5b600289815481101515611b8657fe5b906000526020600020906008020160040154600760008673ffffffffffffffffffffffffffffffffffffffff1673ffffffffffffffffffffffffffffffffffffffff1681526020019081526020016000205410151515611be557600080fd5b6001151560028a815481101515611bf857fe5b906000526020600020906008020160060160059054906101000a900460ff161515141515611c2557600080fd5b60a0604051908101604052804281526020018a815260200160011515815260200189151581526020018815158152509250600160038490806001815401808255809150509060018203906000526020600020906003020160009091929091909150600082015181600001556020820151816001015560408201518160020160006101000a81548160ff02191690831515021790555060608201518160020160016101000a81548160ff02191690831515021790555060808201518160020160026101000a81548160ff02191690831515021790555050500391506000151560028a815481101515611d1257fe5b906000526020600020906008020160060160049054906101000a900460ff1615151415611d6157600289815481101515611d4857fe5b9060005260206000209060080201600501549450611d66565b600080fd5b600289815481101515611d7557fe5b9060005260206000209060080201600401549050600115158815151415611de2578373ffffffffffffffffffffffffffffffffffffffff166108fc829081150290604051600060405180830381858888f19350505050158015611ddc573d6000803e3d6000fd5b50611e2a565b3373ffffffffffffffffffffffffffffffffffffffff166108fc829081150290604051600060405180830381858888f19350505050158015611e28573d6000803e3d6000fd5b505b80600760008673ffffffffffffffffffffffffffffffffffffffff1673ffffffffffffffffffffffffffffffffffffffff16815260200190815260200160002060008282540392505081905550600115158715151415611ed0578373ffffffffffffffffffffffffffffffffffffffff166108fc869081150290604051600060405180830381858888f19350505050158015611eca573d6000803e3d6000fd5b50611f18565b3373ffffffffffffffffffffffffffffffffffffffff166108fc869081150290604051600060405180830381858888f19350505050158015611f16573d6000803e3d6000fd5b505b84600760003373ffffffffffffffffffffffffffffffffffffffff1673ffffffffffffffffffffffffffffffffffffffff168152602001908152602001600020600082825403925050819055508160028a815481101515611f7557fe5b90600052602060002090600802016007018190555081955050505050509392505050565b60076020528060005260406000206000915090505481565b60003073ffffffffffffffffffffffffffffffffffffffff1631905090565b6000806000611fdd61334e565b600080600189815481101515611fef57fe5b906000526020600020906008020160060160089054906101000a900473ffffffffffffffffffffffffffffffffffffffff16935060018981548110151561203257fe5b906000526020600020906008020160000160009054906101000a900473ffffffffffffffffffffffffffffffffffffffff1673ffffffffffffffffffffffffffffffffffffffff163373ffffffffffffffffffffffffffffffffffffffff1614151561209d57600080fd5b6001898154811015156120ac57fe5b906000526020600020906008020160050154600760003373ffffffffffffffffffffffffffffffffffffffff1673ffffffffffffffffffffffffffffffffffffffff168152602001908152602001600020541015151561210b57600080fd5b60018981548110151561211a57fe5b906000526020600020906008020160040154600760008673ffffffffffffffffffffffffffffffffffffffff1673ffffffffffffffffffffffffffffffffffffffff168152602001908152602001600020541015151561217957600080fd5b6001151560018a81548110151561218c57fe5b906000526020600020906008020160060160059054906101000a900460ff1615151415156121b957600080fd5b60a0604051908101604052804281526020018a815260200160001515815260200189151581526020018815158152509250600160038490806001815401808255809150509060018203906000526020600020906003020160009091929091909150600082015181600001556020820151816001015560408201518160020160006101000a81548160ff02191690831515021790555060608201518160020160016101000a81548160ff02191690831515021790555060808201518160020160026101000a81548160ff02191690831515021790555050500391506000151560018a8154811015156122a657fe5b906000526020600020906008020160060160049054906101000a900460ff16151514156122f5576001898154811015156122dc57fe5b90600052602060002090600802016005015494506122fa565b600080fd5b60018981548110151561230957fe5b9060005260206000209060080201600401549050600115158815151415612376578373ffffffffffffffffffffffffffffffffffffffff166108fc829081150290604051600060405180830381858888f19350505050158015612370573d6000803e3d6000fd5b506123be565b3373ffffffffffffffffffffffffffffffffffffffff166108fc829081150290604051600060405180830381858888f193505050501580156123bc573d6000803e3d6000fd5b505b80600760008673ffffffffffffffffffffffffffffffffffffffff1673ffffffffffffffffffffffffffffffffffffffff16815260200190815260200160002060008282540392505081905550600115158715151415612464578373ffffffffffffffffffffffffffffffffffffffff166108fc869081150290604051600060405180830381858888f1935050505015801561245e573d6000803e3d6000fd5b506124ac565b3373ffffffffffffffffffffffffffffffffffffffff166108fc869081150290604051600060405180830381858888f193505050501580156124aa573d6000803e3d6000fd5b505b84600760003373ffffffffffffffffffffffffffffffffffffffff1673ffffffffffffffffffffffffffffffffffffffff168152602001908152602001600020600082825403925050819055508160018a81548110151561250957fe5b90600052602060002090600802016007018190555081955050505050509392505050565b60006001600483908060018154018082558091505090600182039060005260206000200160009091929091909150908051906020019061256e929190613384565b50505060019050919050565b600060028281548110151561258b57fe5b90600052602060002090600802016002015490506002828154811015156125ae57fe5b906000526020600020906008020160060160089054906101000a900473ffffffffffffffffffffffffffffffffffffffff1673ffffffffffffffffffffffffffffffffffffffff163373ffffffffffffffffffffffffffffffffffffffff1614151561261957600080fd5b600160028381548110151561262a57fe5b906000526020600020906008020160060160066101000a81548160ff0219169083151502179055506001808281548110151561266257fe5b906000526020600020906008020160060160066101000a81548160ff0219169083151502179055505050565b6000612698613404565b600060e0604051908101604052803373ffffffffffffffffffffffffffffffffffffffff16815260200185815260200142815260200160001515815260200160001515815260200160001515815260200160001515815250915060016000839080600181540180825580915050906001820390600052602060002090600402016000909192909190915060008201518160000160006101000a81548173ffffffffffffffffffffffffffffffffffffffff021916908373ffffffffffffffffffffffffffffffffffffffff16021790555060208201518160010190805190602001906127859291906132ce565b506040820151816002015560608201518160030160006101000a81548160ff02191690831515021790555060808201518160030160016101000a81548160ff02191690831515021790555060a08201518160030160026101000a81548160ff02191690831515021790555060c08201518160030160036101000a81548160ff02191690831515021790555050500390503373ffffffffffffffffffffffffffffffffffffffff167fc945282605af46d120786319fe276c4a35846960c3d0f8db585c9232b37b831b826040518082815260200191505060405180910390a28092505050919050565b60018181548110151561287c57fe5b906000526020600020906008020160060160089054906101000a900473ffffffffffffffffffffffffffffffffffffffff1673ffffffffffffffffffffffffffffffffffffffff163373ffffffffffffffffffffffffffffffffffffffff161415156128e757600080fd5b600180828154811015156128f757fe5b906000526020600020906008020160060160066101000a81548160ff02191690831515021790555050565b600080600760003373ffffffffffffffffffffffffffffffffffffffff1673ffffffffffffffffffffffffffffffffffffffff1681526020019081526020016000205490508091505090565b60008082915060028281548110151561298357fe5b9060005260206000209060080201600201549050600015156002838154811015156129aa57fe5b906000526020600020906008020160060160059054906101000a900460ff1615151415156129d757600080fd5b600015156002838154811015156129ea57fe5b906000526020600020906008020160060160049054906101000a900460ff161515141515612a1757600080fd5b6000600283815481101515612a2857fe5b906000526020600020906008020160060160009054906101000a900463ffffffff1663ffffffff161115612ac15742610e10600284815481101515612a6957fe5b906000526020600020906008020160060160009054906101000a900463ffffffff160263ffffffff16600284815481101515612aa157fe5b90600052602060002090600802016003015401111515612ac057600080fd5b5b600181815481101515612ad057fe5b906000526020600020906008020160060160089054906101000a900473ffffffffffffffffffffffffffffffffffffffff1673ffffffffffffffffffffffffffffffffffffffff163373ffffffffffffffffffffffffffffffffffffffff1614151515612b3c57600080fd5b34600760003373ffffffffffffffffffffffffffffffffffffffff1673ffffffffffffffffffffffffffffffffffffffff16815260200190815260200160002060008282540192505081905550600282815481101515612b9857fe5b9060005260206000209060080201600401543410151515612bb857600080fd5b33600283815481101515612bc857fe5b906000526020600020906008020160060160086101000a81548173ffffffffffffffffffffffffffffffffffffffff021916908373ffffffffffffffffffffffffffffffffffffffff1602179055506001600283815481101515612c2857fe5b906000526020600020906008020160060160056101000a81548160ff021916908315150217905550505050565b6000612c5f613460565b60008088141515612ce557600088815481101515612c7957fe5b906000526020600020906004020160000160009054906101000a900473ffffffffffffffffffffffffffffffffffffffff1673ffffffffffffffffffffffffffffffffffffffff163373ffffffffffffffffffffffffffffffffffffffff16141515612ce457600080fd5b5b6101a0604051908101604052803373ffffffffffffffffffffffffffffffffffffffff1681526020018a8152602001898152602001428152602001612d318966038d7ea4c680006131f0565b8152602001612d478866038d7ea4c680006131f0565b81526020018663ffffffff1681526020018515158152602001600015158152602001600015158152602001600015158152602001600073ffffffffffffffffffffffffffffffffffffffff16815260200160008152509150600180839080600181540180825580915050906001820390600052602060002090600802016000909192909190915060008201518160000160006101000a81548173ffffffffffffffffffffffffffffffffffffffff021916908373ffffffffffffffffffffffffffffffffffffffff1602179055506020820151816001019080519060200190612e319291906132ce565b5060408201518160020155606082015181600301556080820151816004015560a0820151816005015560c08201518160060160006101000a81548163ffffffff021916908363ffffffff16021790555060e08201518160060160046101000a81548160ff0219169083151502179055506101008201518160060160056101000a81548160ff0219169083151502179055506101208201518160060160066101000a81548160ff0219169083151502179055506101408201518160060160076101000a81548160ff0219169083151502179055506101608201518160060160086101000a81548173ffffffffffffffffffffffffffffffffffffffff021916908373ffffffffffffffffffffffffffffffffffffffff160217905550610180820151816007015550500390506005600089815260200190815260200160002081908060018154018082558091505090600182039060005260206000200160009091929091909150555034600760003373ffffffffffffffffffffffffffffffffffffffff1673ffffffffffffffffffffffffffffffffffffffff168152602001908152602001600020600082825401925050819055503373ffffffffffffffffffffffffffffffffffffffff167f387a0e310bb08169c55ea237a31060835cac67c20dddf4886488d270d56030f9826040518082815260200191505060405180910390a280925050509695505050505050565b6000806005600085815260200190815260200160002080549050600560008681526020019081526020016000208481548110151561307d57fe5b9060005260206000200154915091509250929050565b6060600560008381526020019081526020016000208054806020026020016040519081016040528092919081815260200182805480156130f257602002820191906000526020600020905b8154815260200190600101908083116130de575b50505050509050919050565b606060018281548110151561310f57fe5b90600052602060002090600802016001018054600181600116156101000203166002900480601f0160208091040260200160405190810160405280929190818152602001828054600181600116156101000203166002900480156131b45780601f10613189576101008083540402835291602001916131b4565b820191906000526020600020905b81548152906001019060200180831161319757829003601f168201915b50505050509050919050565b6005602052816000526040600020818154811015156131db57fe5b90600052602060002001600091509150505481565b60008060008414156132055760009150613224565b828402905082848281151561321657fe5b0414151561322057fe5b8091505b5092915050565b6101a060405190810160405280600073ffffffffffffffffffffffffffffffffffffffff1681526020016060815260200160008152602001600081526020016000815260200160008152602001600063ffffffff168152602001600015158152602001600015158152602001600015158152602001600015158152602001600073ffffffffffffffffffffffffffffffffffffffff168152602001600081525090565b828054600181600116156101000203166002900490600052602060002090601f016020900481019282601f1061330f57805160ff191683800117855561333d565b8280016001018555821561333d579182015b8281111561333c578251825591602001919060010190613321565b5b50905061334a9190613503565b5090565b60a06040519081016040528060008152602001600081526020016000151581526020016000151581526020016000151581525090565b828054600181600116156101000203166002900490600052602060002090601f016020900481019282601f106133c557805160ff19168380011785556133f3565b828001600101855582156133f3579182015b828111156133f25782518255916020019190600101906133d7565b5b5090506134009190613503565b5090565b60e060405190810160405280600073ffffffffffffffffffffffffffffffffffffffff16815260200160608152602001600081526020016000151581526020016000151581526020016000151581526020016000151581525090565b6101a060405190810160405280600073ffffffffffffffffffffffffffffffffffffffff1681526020016060815260200160008152602001600081526020016000815260200160008152602001600063ffffffff168152602001600015158152602001600015158152602001600015158152602001600015158152602001600073ffffffffffffffffffffffffffffffffffffffff168152602001600081525090565b61352591905b80821115613521576000816000905550600101613509565b5090565b905600a165627a7a723058208f7414963dccc9a41d15b11944f29ebd46aa3605e89f58bcd2d6f08b74f4e7ee0029",
  "source": "pragma solidity ^0.4.18;\n\nimport \"./SafeMath.sol\";\nimport \"./Ownable.sol\";\n\n\ncontract Supervisor {\n    using SafeMath for uint256;\n\n/*STORAGE*/\n\n    Job[] public jobList;\n    Task[] public taskList;\n    Audit[] public auditList;\n    Close[] public closeList;\n        //test storage vars\n    string[] public testString;\n\n            /*map the task identifiers to their reference jobID*/\n\n    mapping (uint256 => uint256[]) public jobTasks;\n\n            /*map the auditIDs to their auditeeTasks*/\n\n    mapping (uint256 => uint256) public auditMap;\n\n            /*map the task structs to their reference jobID\n            (not really working right now because can only\n            return the first element in the array of structs)*/\n\n            //mapping (uint256 => Task[]) public jobTasksMapping;\n\n            /*map the claimable funding posted by task/job posters*/\n\n    mapping (address => uint256) public postedFunds;\n\n    /*EVENTS--TO DEFINE!!*/\n\n    event TaskPosted(address indexed taskPoster, uint256 taskID);\n    event TaskClosed();\n\n    event JobPosted(address indexed jobPoster, uint256 jobID);\n    event JobClosed();\n\n\n    /*STRUCTS*/\n\n    struct Job {\n\n        /*Job = a set of subTasks, retrievable from mapping*/\n        /*defined at Job creation*/\n\n        address jobCreator;\n        string jobDescription;\n        uint256 postedTime;\n\n        /*Job status variables*/\n\n        bool allSubTasksAccepted;\n        bool allSubTasksCompleted;\n        bool allSubTasksReviewed;\n        bool closed;\n\n    }\n\n    struct Task {\n\n        /*Task = a primary task (not an audit)*/\n\n        /*defined at Task creation*/\n        address taskCreator;\n        string taskDescription;\n        uint256 referenceJobID; //0 if none\n        uint256 postedTime;\n        uint256 bondAmount; //finney\n        uint256 maxPayAmount; //finney\n        uint32 timeLimit; //hours\n        bool auctionedTask;\n\n\n        /*Task status variables*/\n        bool accepted;\n        bool completed;\n        bool audited;\n        address taskAcceptor;\n        uint256 closeID;\n\n    }\n\n    struct Audit {\n\n        /*auditTask = a task consisting of auditing a primary Task*/\n\n        /*defined at Audit creation*/\n        address auditCreator;\n        string auditDescription;\n        uint256 auditeeTask;\n        uint256 postedTime;\n        uint256 bondAmount; //finney\n        uint256 maxPayAmount; //finney\n        uint32 timeLimit; //hours\n        bool auctionedAudit;\n\n\n        /*Audit status variables*/\n        bool accepted;\n        bool completed;\n        bool reAudited;\n        address auditAcceptor;\n        uint256 closeID;\n\n    }\n\n    struct Close {\n\n        //a record of the payment/stiffing at the closing of the task/audit\n\n        uint256 postedTime;\n        uint256 referenceTaskOrAudit;\n        bool trueIfAuditClose;\n        bool returnedBond;\n        bool paidWage;\n\n    }\n\n\n/*FUNCTIONS*/\n\n// test functions\n\n    function testStoreString (\n        string _testString)\n        public returns (bool) {\n            testString.push(_testString)-1;\n            return true;\n    }\n\n\n    /*PRIMARY POSTING FUNCTIONS*/\n\n    function createJob (\n        string _jobDescription)\n        public returns (uint256) {\n\n        /*DELETE eventually, here for reference\n\n        uint256 jobID = jobList.length++;\n        Job storage j = jobList[jobID];\n\n        //input starting job attributes\n\n        j.jobDescription = _jobDescription;\n        j.timeLimit = _timeLimit;\n\n        */\n\n            Job memory _job = Job ({\n\n                //mark Job with input values\n\n                jobCreator: msg.sender,\n                jobDescription: _jobDescription,\n                postedTime: now,\n\n                //mark Job with null values for TBD variables\n\n                allSubTasksAccepted: false,\n                allSubTasksCompleted: false,\n                allSubTasksReviewed: false,\n                closed: false\n\n            });\n\n        //push job to jobList array\n\n        uint256 jobID = jobList.push(_job) - 1;\n\n            //emit event\n        JobPosted(msg.sender, jobID);\n\n        return jobID;\n    }\n\n    function createTask (\n        string _taskDescription,\n        uint256 _referenceJobID,\n        uint256 _bondAmount,\n        uint256 _maxPayAmount,\n        uint32 _timeLimit,\n        bool _auctionedTask)\n        public payable returns (uint256) {\n\n            //there must be an error message in js when this is triggered,\n            //otherwise confusing to user\n            //prevent user from adding a task to a job they did not create\n\n        if (_referenceJobID != 0) {\n            require(msg.sender == jobList[_referenceJobID].jobCreator);\n        }\n\n            //encode task\n        Task memory _task = Task ({\n\n                //mark Task with input values\n            taskCreator: msg.sender,\n            taskDescription: _taskDescription,\n            referenceJobID: _referenceJobID, //should be 0 for standalone task\n            postedTime: now,\n            bondAmount: SafeMath.mul(_bondAmount, 1000000000000000), //finney\n            maxPayAmount: SafeMath.mul(_maxPayAmount, 1000000000000000), //finney\n            timeLimit: _timeLimit,\n            auctionedTask: _auctionedTask,\n\n                //mark Task with null values for TBD variables\n            taskAcceptor: 0x0,\n            accepted: false,\n            completed: false,\n            audited: false,\n            closeID: 0\n        });\n\n            //push task to taskList to general struct array\n\n        uint256 taskID = taskList.push(_task) - 1;\n\n            //map the taskID uint to its referenceJob/\n\n        jobTasks[_referenceJobID].push(taskID);\n\n            /*record the sender's concurrent posting of finney,\n            and require that it equals or exceeds the maxPayAmount*/\n\n        postedFunds[msg.sender] += msg.value;\n        /*comment out for testing to reduce fail points:*/\n        //require(msg.value == taskList[taskID].maxPayAmount);\n\n            /*(DELETE IF NOT USED) map the whole struct to its referenceJob--\n            See *storage* above--not really working now bc can only seem to\n            return the first element in the struct array */\n\n            //jobTasksMapping[_referenceJobID].push(_task);\n\n        //emit Event\n\n        TaskPosted(msg.sender, taskID);\n        return taskID;\n\n\n    }\n\n    function createAudit (\n        string _auditDescription,\n        uint256 _auditeeTask,\n        uint256 _bondAmount,\n        uint256 _maxPayAmount,\n        uint32 _timeLimit,\n        bool _auctionedAudit)\n        public payable returns (uint256) {\n\n            Audit memory _audit = Audit ({\n\n                    //mark Audit with input values\n\n                auditCreator: msg.sender,\n                auditDescription: _auditDescription,\n                auditeeTask: _auditeeTask,\n                postedTime: now,\n                bondAmount: SafeMath.mul(_bondAmount, 1000000000000000), //finney\n                maxPayAmount: SafeMath.mul(_maxPayAmount, 1000000000000000), //finney\n                timeLimit: _timeLimit,\n                auctionedAudit: _auctionedAudit,\n\n                    //mark Audit with null for TBD values\n\n                auditAcceptor: 0x0,\n                accepted: false,\n                completed: false,\n                reAudited: false,\n                closeID: 0\n\n            });\n\n            //prevent user from adding an audit to a task they did not create\n\n        if (_auditeeTask != 0) {\n            require(msg.sender == taskList[_auditeeTask].taskCreator);\n        }\n\n            //push audit to auditList array\n\n        uint256 auditID = auditList.push(_audit) - 1;\n\n            //map the auditID uint to its auditeeTask/\n\n        auditMap[_auditeeTask] = auditID;\n\n            /*record the sender's concurrent posting of finney,\n            and require that it equals or exceeds the maxPayAmount*/\n\n        postedFunds[msg.sender] += msg.value;\n        require(msg.value == auditList[auditID].maxPayAmount);\n\n        return auditID;\n    }\n\n\n    /*INTERACTION FUNCTIONS*/\n\n    function acceptTask (\n        uint256 _taskID)\n        public payable {\n\n            /*\n            get Task and check that Task is\n            1) not already accepted,\n            2) not an auctioned Task,\n            3) not expired\n            */\n\n        uint256 taskID = _taskID;\n        require(taskList[taskID].accepted == false);\n        require(taskList[taskID].auctionedTask == false);\n        if (taskList[taskID].timeLimit > 0) {\n        require((taskList[taskID].postedTime + (taskList[taskID].timeLimit * 1 hours)) > now);\n        }\n            //record the bond sent by user, & Require that sufficient bond is send & posted\n\n        postedFunds[msg.sender] += msg.value;\n        require(msg.value == taskList[taskID].bondAmount);\n\n            //mark task struct accepted by user\n\n        taskList[taskID].taskAcceptor = msg.sender;\n        taskList[taskID].accepted = true;\n\n    }\n\n    function acceptAudit (\n        uint256 _auditID)\n        public payable {\n\n            //local vars\n\n        uint256 auditID = _auditID;\n        uint256 auditeeTaskID = auditList[auditID].auditeeTask;\n\n            /*\n            check that Audit is\n            1) not already accepted,\n            2) not an auctioned Audit,\n            3) not expired, if there is a time limit\n            4) not being accepted by the auditee task acceptor\n            */\n\n        require(auditList[auditID].accepted == false);\n        require(auditList[auditID].auctionedAudit == false);\n        if (auditList[auditID].timeLimit > 0) {\n        require((auditList[auditID].postedTime + (auditList[auditID].timeLimit * 1 hours)) > now);\n        }\n        require(msg.sender != taskList[auditeeTaskID].taskAcceptor);\n\n            //record the bond sent by user, & Require that sufficient bond is send & posted\n\n        postedFunds[msg.sender] += msg.value;\n        require(msg.value >= auditList[auditID].bondAmount);\n\n            //mark Audit struct accepted by user\n\n        auditList[auditID].auditAcceptor = msg.sender;\n        auditList[auditID].accepted = true;\n\n    }\n\n    function markTaskComplete (uint256 _taskID)\n        public {\n            require(msg.sender == taskList[_taskID].taskAcceptor);\n            taskList[_taskID].completed = true;\n    }\n\n    function markAuditComplete (uint256 _auditID)\n        public {\n            uint256 auditeeTaskID = auditList[_auditID].auditeeTask;\n            require(msg.sender == auditList[_auditID].auditAcceptor);\n            auditList[_auditID].completed = true;\n            taskList[auditeeTaskID].completed = true;\n    }\n\n    function closeOutTask (uint256 _taskID,\n        bool _returnBond,\n        bool _remitPay)\n        public\n        returns (uint256) {\n\n                //set up pay variable, threshold requires\n\n            uint256 applicablePay;\n            address taskAcceptor = taskList[_taskID].taskAcceptor;\n            require(msg.sender == taskList[_taskID].taskCreator);\n            require(postedFunds[msg.sender] >= taskList[_taskID].maxPayAmount);\n            require(postedFunds[taskAcceptor] >= taskList[_taskID].bondAmount);\n            require(taskList[_taskID].accepted == true);\n\n                //fill out Close struct\n\n            Close memory _close = Close ({\n                postedTime: now,\n                referenceTaskOrAudit: _taskID,\n                trueIfAuditClose: false,\n                returnedBond: _returnBond,\n                paidWage: _remitPay\n            });\n\n                //push close Struct to storage\n\n            uint256 closeID = closeList.push(_close) - 1;\n\n        /*contract remits the deposit/pay*/\n\n                //applicablePay is necessarily maxpayamount only if non-auction\n\n            if (taskList[_taskID].auctionedTask == false) {\n                applicablePay = taskList[_taskID].maxPayAmount;\n            } else {\n                revert();\n            }\n\n\n                //if returnBond true, K sends to Acceptor, else, to taskCreator\n\n            uint256 taskBond = taskList[_taskID].bondAmount;\n            if (_returnBond == true) {\n                taskAcceptor.transfer(taskBond);\n            } else {\n                msg.sender.transfer(taskBond);\n            }\n\n            postedFunds[taskAcceptor] -= taskBond;\n\n                //if remitPay true, K sends to Acceptor, else, to taskCreator\n            if (_remitPay == true) {\n                taskAcceptor.transfer(applicablePay);\n            } else {\n                msg.sender.transfer(applicablePay);\n            }\n\n            postedFunds[msg.sender] -= applicablePay;\n\n                //update Task struct with closeID\n\n            taskList[_taskID].closeID = closeID;\n\n            return closeID;\n\n    }\n\n    function closeOutAudit (uint256 _auditID,\n        bool _returnBond,\n        bool _remitPay)\n        public\n        returns (uint256) {\n\n                //set up pay variable, threshold requires\n\n            uint256 applicablePay;\n            address auditAcceptor = auditList[_auditID].auditAcceptor;\n            require(msg.sender == auditList[_auditID].auditCreator);\n            require(postedFunds[msg.sender] >= auditList[_auditID].maxPayAmount);\n            require(postedFunds[auditAcceptor] >= auditList[_auditID].bondAmount);\n            require(auditList[_auditID].accepted == true);\n\n                //fill out Close struct\n\n            Close memory _close = Close ({\n                postedTime: now,\n                referenceTaskOrAudit: _auditID,\n                trueIfAuditClose: true,\n                returnedBond: _returnBond,\n                paidWage: _remitPay\n            });\n\n                //push close Struct to storage\n\n            uint256 closeID = closeList.push(_close) - 1;\n\n        /*contract remits the deposit/pay*/\n\n                //applicablePay is necessarily maxpayamount only if non-auction\n\n            if (auditList[_auditID].auctionedAudit == false) {\n                applicablePay = auditList[_auditID].maxPayAmount;\n            } else {\n                revert();\n            }\n\n\n                //if returnBond true, K sends to Acceptor, else, to taskCreator\n\n            uint256 auditBond = auditList[_auditID].bondAmount;\n            if (_returnBond == true) {\n                auditAcceptor.transfer(auditBond);\n            } else {\n                msg.sender.transfer(auditBond);\n            }\n\n            postedFunds[auditAcceptor] -= auditBond;\n\n                //if remitPay true, K sends to Acceptor, else, to taskCreator\n            if (_remitPay == true) {\n                auditAcceptor.transfer(applicablePay);\n            } else {\n                msg.sender.transfer(applicablePay);\n            }\n\n            postedFunds[msg.sender] -= applicablePay;\n\n                //update Audit struct with closeID\n\n            auditList[_auditID].closeID = closeID;\n\n            return closeID;\n\n    }\n\n    /*\n    function closeOutAudit () public {\n\n    }\n\n    function closeJob () public {\n\n    }\n    */\n\n    /*GETTERS AND INFORMATION FUNCTIONS*/\n\n    /*enter the jobID and jobTaskId\n    (i.e., the [arraynum] of the Task w/in the Job);\n    and return the global TaskID of that task, if there is one*/\n\n    function testStringGetter ()\n        public constant returns (uint256 numberOfStrings,\n                              string lastString) {\n            uint256 len = testString.length - 1;\n            return (testString.length,\n                  testString[len]);\n    }\n\n    function getJobSizeAndTaskID (\n        uint256 _jobID,\n        uint256 _jobTask)\n        public constant returns (uint256 numberOfTaskIDs,\n                            uint256 calledTaskID) {\n\n            return (jobTasks[_jobID].length,\n                    jobTasks[_jobID][_jobTask]);\n\n        }\n\n        //simple checker of balance of entire contract\n        //possibly mark owned, eventually\n\n    function getContractBalance ()\n        public constant returns (uint256) {\n            return this.balance;\n        }\n\n        //check storage mapping to see how many Ether the user has posted to the contract\n\n    function checkEtherSentToContract ()\n        public constant returns (uint256) {\n\n            uint256 userFunds = postedFunds[msg.sender];\n            return userFunds;\n\n        }\n\n        /*FALLBACK FUNCTION for handling payments not associated with\n        the posting of a task*/\n\n    function ()\n        public payable {\n\n            postedFunds[msg.sender] += msg.value;\n\n        }\n\n        //simple checker of the contract address, for testing\n\n    function checkContractAddress ()\n        external constant returns (address contractAddress) {\n\n            contractAddress = this;\n            return contractAddress;\n        }\n\n    function taskListGetter (uint256 _taskID)\n        public constant returns (string) {\n            return (taskList[_taskID].taskDescription);\n    }\n\n    function jobTasklistGetter (uint256 _jobID)\n        public constant returns (uint256[]) {\n            return (jobTasks[_jobID]);\n    }\n\n}\n",
  "sourcePath": "/Users/matthewprewitt/JustSavannah/contracts/Supervisor.sol",
  "compiler": {
    "name": "solc",
    "version": "0.4.24+commit.e67f0147.Emscripten.clang"
  },
  "schemaVersion": "2.0.1",
  "updatedAt": "2018-09-13T13:15:02.734Z"
}