{
  "contractName": "VCGLib1",
  "abi": [
    {
      "constant": true,
      "inputs": [],
      "name": "getContractBalance",
      "outputs": [
        {
          "name": "",
          "type": "uint256"
        }
      ],
      "payable": false,
      "stateMutability": "view",
      "type": "function"
    }
  ],
  "bytecode": "0x60c261002f600b82828239805160001a6073146000811461001f57610021565bfe5b5030600052607381538281f30073000000000000000000000000000000000000000030146080604052600436106056576000357c0100000000000000000000000000000000000000000000000000000000900463ffffffff1680636f9fb98a14605b575b600080fd5b60616077565b6040518082815260200191505060405180910390f35b60003073ffffffffffffffffffffffffffffffffffffffff16319050905600a165627a7a7230582002d718e6d36b6ab31ff1c14129ab6ce1e64742afdcb8bf1b75aef126c71cd1c00029",
  "source": "pragma solidity ^0.4.18;\n\nlibrary VCGLib1 {\n\n    struct Electorate {\n\n        string electorateName;\n        bool listComplete;\n        bool ownedList;\n        address electorateCreator;\n        address[] addressArray;\n        mapping (address => bool) membershipCheck;\n        uint256 maxNoShows; // this is important.  no showing messes up the system and opens it to exploitation.  must harshly penalize it.\n        uint256 perMemberBuyIn;\n            //signed ints\n        int256 memberCount;\n\n    }\n\n    struct Proposal {\n\n        string proposalDescription;\n        uint256 electorateID;\n            //signed ints\n        int256 neededAmount;\n        int256 fairAmount;\n        int256 numberOfVotes;\n            //unsigned ints\n        uint256 postedTime;\n        uint256 bidDeadline;\n        uint256 revealDeadline;\n        mapping (address => bool) voted;\n        mapping (address => bool) revealed;\n        mapping (address => int256) bid;\n        mapping (address => bytes32) hashedBid;\n        bool outcomePassed;\n        bool resolved;\n        address beneficiaryAddress;\n            //currently unused\n        int256 shortfallTallier;\n        uint256 shortBidderCount;\n\n    }\n\n    //     //untested function\n    // function corralDelinquents(uint256 _electorate, bool _boot)\n    //     public returns (address[] delinquents) {\n\n    //         Electorate storage electorate = electorateList[_electorate];\n    //         //delinquents memory = _delinquents[];\n    //         uint256 wholeElectorate = electorate.addressArray.length;\n\n    //         if (electorate.ownedList = true) {\n    //             require(electorate.electorateCreator == msg.sender,\n    //             \"This function is restricted to the Group Owner.\");\n    //         }\n\n    //         for (uint256 i = 0; i<wholeElectorate; i++) {\n    //             address _address = electorate.addressArray[i];\n    //             if ((electorate.membershipCheck[_address] = true)\n    //                 && (electorate.maxNoShows >= noShowCount[_electorate][_address])) {\n    //                 delinquents[delinquents.length] = _address;\n    //                 if (_boot == true) {\n    //                     bootMember(_electorate, _address);\n    //                 }\n    //             }\n    //         }\n    //         return delinquents;\n    //     }\n\n    //     //untested function\n    // function bootMember(uint256 _electorate, address _member)\n    //     public {\n\n    //         //boot passed _member address:\n    //         electorateList[_electorate].membershipCheck[_member] = false;\n\n    //     }\n\n\n    //     //withdraw ether from contract\n\n    // function withdrawEtherFromContract (uint256 _withdrawal)\n    //     public payable returns (uint256) {\n\n    //             //require no pending bid\n    //         require(fundsLockedUnlessZero[msg.sender] == 0);\n    //             //require amount withdrawn less than amount deposited\n    //         require(_withdrawal <= postedFunds[msg.sender]);\n    //             //remit\n    //         postedFunds[msg.sender] -= SafeMath.mul(_withdrawal, 1000000000000000);\n    //         msg.sender.transfer(SafeMath.mul(_withdrawal, 1000000000000000));\n\n    //     }\n\n    //     //check storage mapping to see how many Ether the user has posted to the contract\n\n    // function checkEtherSentToContract ()\n    //     public constant returns (uint256) {\n\n    //         uint256 userFunds = postedFunds[msg.sender];\n    //         return userFunds;\n\n    //     }\n\n    //     ///used in js so keep for now\n\n    // function electorateMemberGetter (uint256 _electorateID, uint256 _index)\n    //     public constant returns (address[], address) {\n    //         return (electorateList[_electorateID].addressArray,\n    //                 electorateList[_electorateID].addressArray[_index]);\n    //     }\n\n    // function panelProposalsGetter (uint256 _electorateID)\n    //     public constant returns (uint256[]) {\n    //         return (electorateProposals[_electorateID]);\n    //     }\n\n\n    function getContractBalance ()\n        public constant returns (uint256) {\n            return address(this).balance;\n        }\n}\n",
  "sourcePath": "/Users/matthewprewitt/JustSavannah/contracts/VCGLib1.sol",
  "compiler": {
    "name": "solc",
    "version": "0.4.24+commit.e67f0147.Emscripten.clang"
  },
  "schemaVersion": "2.0.1",
  "updatedAt": "2018-09-13T13:15:02.745Z"
}